:020000040800F2
:10000000F0FF001055C40408C9370308157302082F
:10001000F1C40408F1C40408F1C40408000000009D
:10002000000000000000000000000000D5370308B9
:10003000D137030800000000CD370308AD4C02089B
:10004000F1C40408F1C40408F1C40408F1C40408AC
:10005000F1C40408F1C40408A9800208E981020877
:10006000A9810208698102082981020845D7000890
:1000700035D7000825D7000815D7000801D7000894
:10008000EDD60008D9D60008F1C40408F1C404086C
:10009000F1C40408F1C40408F1C40408E9800208AA
:1000A000152E0208A1330208F1C4040861340208C5
:1000B000E132020821320208553102086D030108BD
:1000C000750301085D03010865030108F1C4040814
:1000D000F1C40408254E0208F1C40408894D020841
:1000E00069800208F1C4040899860308452D0208B6
:1000F000E52E0208F1C40408B52F0208C5D6000891
:10010000F1C40408F1C4040885300208F1C40408ED
:10011000F1C40408F1C4040831E702081DE702082D
:10012000B1D600089DD6000889D6000875D600080B
:1001300061D60008F1C40408F1C40408F1C404083D
:10014000F1C40408F1C40408F1C404081150030800
:100150004DD6000839D6000825D60008ED4C020817
:100160004D03010855030108F1C40408F1C4040853
:10017000F1C40408F1C40408F1C40408F1C404087B
:08018000F1C40408F1C40408F5
:08018800FCBF040001000000AF
:10019000100201006C3200206832002000000000D4
:1001A00030070008F82106009A550020C05F0020A3
:1001B000000000003407000803123300CC5E00206A
:1001C000FF5E0020000000003A07000825009600AE
:1001D000805D0020165E002000000000000000008E
:1001E000F6210C004C5B0020FC5C002000000000AD
:1001F00070070008150070001C5C00208C5C00205B
:1002000000000000000000002A0060005C5B00208D
:10021000BC5B002000000000913A04082C00100094
:10022000AC5E0020BC5E00200000000059200108E8
:100230002B002400565F0020325F002000000000E9
:100240002920010829107800585A0020085D002054
:1002500000000000000000002810100024590020B9
:10026000C85F0020000000006D04010804120200B5
:10027000B0590020D85F0020000000007C07000873
:100280000F020100AC590020DC5F002000000000DC
:100290007E0700081400030010590020585B00205E
:1002A00000000000800700080E502001E0700020D0
:1002B0001079002000000000B93A0408130004007F
:1002C000F4750020307A0020000000008407000848
:1002D000010104005A700020347A00200000000060
:1002E000000000000001040052700020387A002055
:1002F0000000000088070008020103004D70002084
:100300003C7A0020000000009599020809020100D3
:100310002C780020407A0020000000008C070008A4
:100320000C106C002A720020447A002000000000AB
:10033000199902080102050062700020B07A0020BD
:10034000000000006D9B01080002050058750020A8
:10035000B87A002000000000000000001B02080026
:1003600000780020C07A002000000000AD84000862
:1003700001200800F0760020C87A0020000000006C
:100380008E0700081900050094770020D07A00201D
:10039000000000009607000837001E006C77002060
:1003A000D87A0020000000009C0700081E0005000D
:1003B00018730020F87A002000000000BA07000837
:1003C0001B00F400E85F0020007B0020000000001C
:1003D000E9AB01080E02020088760020F47B0020C1
:1003E00000000000C00700082F001100F078002076
:1003F000F87B002000000000C20700081A023C0041
:100400000C7D002054810020000000002193000892
:1004100027000400087D00209081002000000000DB
:10042000D407000807020200148800204C8800202E
:1004300000000000D807000802000C00EC87002034
:1004400050880020000000000000000006020C00A0
:10045000E08700205C88002000000000F193000885
:10046000081209006487002068880020000000004E
:100470007D840008F70106005A8700207488002058
:1004800000000000DA0700080A020A00D0860020F7
:100490007C88002000000000E00700080300010045
:1004A000E881002088880020000000000000000093
:1004B00010100200CC8100208C8800200000000079
:1004C000EA07000805100600B89E0020A0A300203F
:1004D00000000000EC070008F5317000189E0020B5
:1004E000A8A3002000000000DDA5010826000E00E2
:1004F00028A4002018A4002000000000FD2A030802
:100500000B201000349B00205CA4002000000000A1
:10051000F20700081F201C00849200206CA4002019
:10052000000000000208000805020400E09D002011
:1005300088A40020000000001E08000803010A0033
:10054000EC9A00208CA40020000000002208000883
:1005500013020300BC90002098A4002000000000BB
:100560002C08000816000800C4B50020CCB50020F7
:1005700000000000300800080400800094E900201A
:100580004CEA0020000000000000000023001000E2
:100590004CE90020CCEA002000000000890401089A
:1005A0000D003400ACE80020DCEA00200000000070
:1005B00055890308FD012400DCDF002010EB00203A
:1005C00000000000B917020818202C00ACDF002042
:1005D00034EB002000000000019500080610180010
:1005E00004D3002060EB002000000000153B04084D
:1005F000FB01010000D3002078EB00200000000088
:10060000C5930008FC010900CCD100207CEB002040
:1006100000000000D59300080A402000A4D100206B
:1006200088EB0020000000003808000834001000AB
:1006300098D00020A8EB002000000000E93A040850
:100640001102080070D00020B8EB0020000000006C
:10065000580800081212040068D00020C0EB0020E7
:10066000000000006008000812200D0058D0002093
:10067000C4EB00200000000064080008F901040039
:10068000F8C90020D4EB0020000000003118020857
:100690001802020000C40020D8EB00200000000077
:1006A0000000000017020B00F4C30020DCEB002068
:1006B0000000000039840008FA01020088C300200D
:1006C000E8EB002000000000918500080202030012
:1006D00048B60020ECEB0020000000000000000005
:1006E0000C02030004B60020F0EB00200000000024
:1006F0009D84000811000C0014B80020F4EB0020C9
:100700000000000011870308FE010900FCB700206B
:1007100000EC002000000000198400081A000E0000
:1007200004EE002008EF002000000000720800081E
:10073000000000000401F4011900000000000000A6
:1007400000000000000000000000000000000000A9
:100750000000000000000000000000000000000099
:100760000000000000000000000000000100000088
:10077000000000000100000002020000111800004B
:100780000300000000200430900100002E00E80368
:100790006400040A0001000028010000200032006B
:1007A000C800D0079600140032002800B0044006AC
:1007B0000005500014000F000801000001000000B7
:1007C0000000000000000000000000000000000029
:1007D0000000000020030000023C24010000000093
:1007E00000004A01B400D60100000005200001010C
:1007F00000002B21231E64010100000001000A01FA
:1008000029000000000000010000000500000102B6
:1008100003000000000000000000000000000000D5
:100820000000040101006C16000000000000000040
:10083000C409000019012828003001000000000050
:1008400064002C0100000000000000000000020015
:1008500000019E077D0046320000000001010101F9
:10086000FFFFFFFF000000010000054F424634007B
:1008700000007E05EA05B4053200E803D007000059
:100880001A0300000000000000000000000000004B
:100890000000000000000000000000000403090444
:1008A00012010002000000408304205700020102F0
:1008B0000301000035B60008ED840008E984000853
:1008C000E584000861950008E1840008DD840008E3
:1008D00034E00408494B030849200308314A03085F
:1008E0000000000000000000813F0308A93F03084A
:1008F000000000000000000000000000A91E030826
:100900008585000879850008919A0008AD9A00084D
:1009100031850008759A0008599A00080100000006
:10092000500100000700000002000000000000006D
:10093000000000000102030406070809D6010000B8
:10094000A9120108000000000000000001000000E2
:10095000000101010001FFFFFFFFFFFF0100000098
:1009600000000100E0010000FFFFFFFF01010100A6
:100970006D9F01080000000064020020F07405086B
:100980000000000000000000000000000000000067
:10099000486A050800000000000000000A0300206B
:1009A000040000009C7405080D00000055CB0108F0
:1009B000E81C002000000000F46D05080D00000098
:1009C0007DCB0108DC1C0020000000005C6F0508E6
:1009D0000800000000000000D01C002004000000FF
:1009E000606E05080D00000021A00108C41C002055
:1009F00000000000106F050803000000C5CD0108CD
:100A0000B81C00200000000000750508030000006D
:100A1000C5CD0108AC1C002000000000906A05084C
:100A200001000000000000000000000000000000C5
:100A3000000000000E0000000000000000000000A8
:100A400000000000F0740508000000000000000035
:100A50000000000000000000486A050800000000D7
:100A6000000000000A03002004000000487405088C
:100A700003000000CDA60108A01C00200800000013
:100A8000606E05080D00000021A00108C41C0020B4
:100A900000000000106F050803000000C5CD01082C
:100AA000B81C0020000000000075050803000000CD
:100AB000C5CD0108AC1C002000000000906A0508AC
:100AC0000100000000000000000000000000000025
:100AD000000000000E000000000000000000000008
:100AE000000000000875050800000000000000007C
:100AF0000000000000000000486A05080000000037
:100B0000000000000A0300200400000050740508E3
:100B100003000000C5CD0108F41C00200000000007
:100B2000906A0508010000000000000000000000BD
:100B300000000000000000000E00000000000000A7
:100B4000000000000000000020700020702D7200E6
:100B5000FFFFFFFF010000000000803F08000000D1
:100B60004257020000000106425702000000010641
:100B700000000000000000005C180020FA000000E7
:100B80000100000001000000FFFF2D202D2D202D71
:100B90002D2D2D202D2D2D00000000000000000027
:100BA000000000000000000000000000FFFFFFFF49
:100BB000646A05086C6A0508886A05080000000078
:100BC000000000000000000000000000436805086D
:100BD000040000001DC90108000000000000000022
:100BE000906A0508010000000000000000000000FD
:100BF00000000000000000000E00000000000000E7
:100C0000000000000000000034EA00200100C409D8
:100C10000000000032EA00200100C40900000000CA
:100C200030EA00200100C409000000002EEA002084
:100C30000100C409000000002AEA00200100C409E4
:100C4000000000002CEA00200100C40900000000A0
:100C500028EA00200100C4090000000026EA002064
:100C60000100C40900000000747000200100C800E9
:100C70000100000072700020320030753200000068
:100C800070700020055A05006D70002000FF010003
:100C90006F70002001000000300300206B70002006
:100CA00002000000941A05086C70002000FF01008B
:100CB0006E70002001000000300300206A700020E8
:100CC00002000000941A05086070002080C1803E78
:100CD000050000005E70002080C1803E050000001D
:100CE0005870002080C1803E050000005670002032
:100CF00080C1803E050000005070002000FF010010
:100D00004C7000200A3201004B70002004000000EB
:100D10007C1105084A7000200200000090110508AF
:100D2000000000000000000038030020909D00201B
:100D30009CFF2C0100000000EC0000200A000000D5
:100D40009C11050840700020E0150C170000000001
:100D5000EE00002008000000681A0508ED000020E1
:100D600005000000D01205084270002002000000BB
:100D7000B4110508B07200200100FF7F01000000DF
:100D8000AF72002002000000C0110508D3700020DF
:100D900003000000D0110508D270002003000000FD
:100DA000D01105080A7200200000F40101000000C3
:100DB000087200200000F40101000000067200200B
:100DC0000000F40101000000047200200000F401A2
:100DD00001000000027200200000803E01000000BF
:100DE000007200200000803E0100000026720020FA
:100DF000E803D0070A00000024720020006401000C
:100E00000A0000001972002000640100187200201E
:100E10000064010020720020006401000A0000004C
:100E20001F720020006401000A0000001E720020F2
:100E3000006401000A000000237200200064010029
:100E40000A00000022720020006401000A00000075
:100E500021720020006401000A0000001D720020C1
:100E600000FF01000A0000001C72002000FF0100CA
:100E70000A0000001B72002000FF01000A000000B1
:100E8000DC7000200000F40101000000DA70002096
:100E90000000F40101000000D87000200000F401FF
:100EA00001000000D67000200000F40101000000E5
:100EB000D47000200000F401010000001672002030
:100EC00000640100147200201400E8030100000017
:100ED00012720020E80330750A0000001072002032
:100EE00000C801000F72002000C801000E7200202F
:100EF00000C801000D720020006401000A0000001B
:100F0000A47200200000D007010000009F720020A2
:100F100000C801009E72002000C801009D720020E0
:100F200000C80100A27200200000D00701000000EC
:100F30009C72002000C801009B72002000C80100C4
:100F40009A72002000C80100A07200200000D007A3
:100F5000010000009972002000C801009872002072
:100F600000C801009772002000C80100B86A050897
:100F70000000000000000000000000000000000071
:100F80009C3A05080900000000000000DC03002076
:100F900004000000A43A0508090000000000000059
:100FA000D0030020040000002072050809000000A2
:100FB00000000000C4030020040000003A69050896
:100FC0000900000000000000B80300200400000039
:100FD000C86A05080900000000000000AC030020FA
:100FE00004000000D06A05080900000000000000AD
:100FF000A003002004000000D86A050809000000D2
:10100000000000009403002004000000E06A0508CE
:101010000900000000000000880300200400000018
:10102000906A0508010000000000000000000000B8
:1010300000000000000000000E00000000000000A2
:101040000000000000000000E06C05080000000047
:10105000000000000000000000000000E85B050840
:101060000700000000000000000400200000000055
:10107000F06C05080800000000000000F4030020E8
:1010800000000000FC6C05080800000000000000E3
:10109000E803002000000000906A0508010000003D
:1010A0000000000000000000000000000000000040
:1010B0000E00000000000000000000000000000022
:1010C000046D0508000000000000000000000000A2
:1010D00000000000146D05080D0000000000000075
:1010E0003C040020000000001C6D05080D000000FD
:1010F000000000003004002000000000246D0508FE
:10110000070000000000000028040020000000008C
:101110002C6D05080D000000000000001C040020DC
:1011200000000000346D05080D0000000000000004
:1011300010040020000000003C6D050807000000BE
:10114000000000000804002000000000906A05086C
:10115000010000000000000000000000000000008E
:10116000000000000E000000000000000000000071
:1011700000000000446D05080000000000000000B1
:101180000000000000000000E85B05080C00000003
:10119000000000007670002000000000586D050877
:1011A0000C0000000000000078700020000000002B
:1011B000686D05080C00000000000000AE70002003
:1011C00000000000786D05080C0000000000000021
:1011D000A2700020000000008C6D05080C000000CB
:1011E000000000007A70002000000000986D0508E3
:1011F0000C000000000000007C70002000000000D7
:10120000A06D05080C000000000000007E700020AA
:1012100000000000B46D05080C0000000000000094
:101220008070002000000000BC6D05080C0000006C
:10123000000000008270002000000000C46D05085E
:101240000C00000000000000C07000200000000042
:10125000DC6D05080C000000000000008470002018
:1012600000000000E86D05080C0000000000000010
:101270008670002000000000AC3A05080C00000059
:10128000000000008870002000000000F06D0508DC
:101290000C000000000000008A7000200000000028
:1012A000FC6D05080C000000000000008C700020A0
:1012B00000000000086E05080C000000000000009F
:1012C0008E70002000000000146E05080C00000065
:1012D000000000009070002000000000206E050853
:1012E0000C000000000000009270002000000000D0
:1012F0002C6E05080C00000000000000A670002005
:1013000000000000346E05080C0000000000000022
:10131000A4700020000000003C6E05080C000000D6
:1013200000000000B270002000000000486E0508B8
:101330000C00000000000000B4700020000000005D
:10134000546E05080C00000000000000BA70002078
:1013500000000000846B05080C0000000000000085
:101360009470002000000000606E05080C00000072
:10137000000000009C70002000000000686E05085E
:101380000C0000000000000096700020000000002B
:10139000746E05080C00000000000000987000202A
:1013A00000000000806E05080C0000000000000036
:1013B0009A70002000000000886E05080C000000F4
:1013C000000000009E70002000000000085C05087E
:1013D0000C00000000000000A870002000000000C9
:1013E000946E05080C00000000000000A0700020B2
:1013F00000000000D06905080C000000000000009B
:10140000B070002000000000A06E05080C00000075
:1014100000000000AA70002000000000A86E05086F
:101420000C00000000000000AC7000200000000074
:10143000B06E05080C00000000000000B67000202F
:1014400000000000B86E05080C000000000000005D
:10145000B870002000000000C06E05080C000000FD
:1014600000000000CA70002000000000906A05081B
:10147000010000000000000000000000000000006B
:10148000000000000E00000000000000000000004E
:1014900000000000C86E0508000000000000000009
:1014A0000000000000000000D46E05080D000000E0
:1014B000000000009404002000000000DC6E05081D
:1014C0000D00000000000000880400200000000063
:1014D000E46E050807000000000000008004002002
:1014E00000000000F06E050807000000000000008A
:1014F0007804002000000000FC6E050809000000D0
:10150000000000006C04002000000000086F0508C7
:10151000090000000000000060040020000000003E
:10152000146F0508090000000000000054040020AA
:1015300000000000246F0508090000000000000002
:101540004804002000000000906A05080100000027
:10155000000000000000000000000000000000008B
:101560000E0000000000000000000000000000006D
:10157000386F0508000000000000000000000000B7
:1015800000000000486F0508050000000000000092
:10159000D170002000000000906A050801000000E2
:1015A000000000000000000000000000000000003B
:1015B0000E0000000000000000000000000000001D
:1015C000506F05080000000000000000000000004F
:1015D00000000000486A050800000000000000004C
:1015E000F41E002004000000366905080D0000000C
:1015F00081C90108E8040020000000009C7405086F
:101600000D000000259F0108DC0400200000000000
:10161000F46D05080D000000099F0108D0040020AA
:10162000000000005C6F05080800000000000000DA
:10163000C404002004000000606E05080D000000D6
:10164000519E0108B804002000000000646F0508E6
:101650000900000000000000AC04002004000000AD
:10166000106F050803000000C5CD0108A00400208C
:1016700000000000906A0508010000000000000062
:101680000000000000000000000000000E0000004C
:101690000000000000000000000000006C6F050862
:1016A000000000000000000000000000000000003A
:1016B0007C6F05080D000000000000000005002000
:1016C00000000000846F05080A0000000000000010
:1016D0005076002000000000906F05080A0000000E
:1016E000000000005876002000000000986F0508F8
:1016F0000A000000000000006076002000000000EA
:10170000A06F05080800000000000000F40400209D
:1017100000000000A86F050804000000F9CE0108D1
:101720000000000000000000906A050801000000B1
:1017300000000000000000000000000000000000A9
:101740000E0000000000000000000000000000008B
:10175000B46F050800000000000000000000000059
:1017600000000000C86F05080D0000000000000028
:101770001805002000000000D86F050804000000D4
:10178000F9CB01080000000000000000E06F050830
:101790000D000000000000000C050020000000000B
:1017A000F46F050804000000D5CB0108000000001C
:1017B00000000000906A0508010000000000000021
:1017C0000000000000000000000000000E0000000B
:1017D000000000000000000000000000FC6F050891
:1017E00000000000000000000000000000000000F9
:1017F00010700508080000000000000060050020CF
:10180000000000001C700508080000000000000037
:1018100054050020000000002870050808000000A2
:10182000000000004805002000000000347005089A
:1018300008000000000000003C050020000000003F
:10184000407005080800000000000000300500207E
:10185000000000004C7005080800000000000000B7
:101860002405002000000000906A05080100000027
:101870000000000000000000000000000000000068
:101880000E0000000000000000000000000000004A
:10189000587005080000000000000000CB02002086
:1018A00000000000647005080B000000000000004C
:1018B000F405002000000000707005080B00000017
:1018C00000000000E8050020000000007C70050812
:1018D0000B00000000000000DC05002000000000FC
:1018E000887005080B00000000000000D0050020F3
:1018F00000000000947005080B00000000000000CC
:10190000C405002000000000A07005080B000000C6
:1019100000000000B805002000000000AC700508C1
:101920000B00000000000000AC05002000000000DB
:10193000B87005080B00000000000000A0050020A2
:1019400000000000C47005080B000000000000004B
:101950009405002000000000D0700508070000007A
:10196000000000008C05002000000000D870050871
:1019700007000000000000008405002000000000B7
:10198000E47005080B00000000000000780500204E
:1019900000000000F07005080800000000000000D2
:1019A0006C05002000000000906A0508010000009E
:1019B0000000000000000000000000000000000027
:1019C0000E00000000000000000000000000000009
:1019D000FC7005080000000000000000000000008E
:1019E0000000000010710508080000000000000061
:1019F00030060020000000001C71050808000000EF
:101A000000000000240600200000000028710508E6
:101A10000800000000000000180600200000000080
:101A20003471050808000000000000000C060020CA
:101A300000000000407105080800000000000000E0
:101A40000006002000000000906A05080100000068
:101A50000000000000000000000000000000000086
:101A60000E00000000000000000000000000000068
:101A7000487105080000000000000000C8020020B6
:101A800000000000587105080B0000000000000075
:101A900074060020000000006471050807000000C3
:101AA000000000006C0600200000000070710508B6
:101AB0000700000000000000640600200000000095
:101AC0007C71050807000000000000005C06002093
:101AD00000000000887105080800000000000000F8
:101AE000500600200000000090710508080000006A
:101AF0000000000044060020000000009871050866
:101B000007000000000000003C060020000000006C
:101B1000906A0508010000000000000000000000BD
:101B200000000000000000000E00000000000000A7
:101B30000000000000000000A47105080000000083
:101B400000000000C802002000000000B07105087D
:101B50000700000000000000E40600200000000074
:101B6000B87105080700000000000000DC06002036
:101B700000000000C0710508070000000000000020
:101B8000D406002000000000C8710508080000000D
:101B900000000000C806002000000000D071050809
:101BA0000700000000000000C00600200000000048
:101BB000D87105080700000000000000B8060020EA
:101BC00000000000E07105080700000000000000B0
:101BD000B006002000000000E871050808000000C1
:101BE00000000000A406002000000000F0710508BD
:101BF00007000000000000009C060020000000001C
:101C0000F87105080700000000000000940600209D
:101C1000000000000072050807000000000000003E
:101C20008C06002000000000087205080800000073
:101C3000000000008006002000000000906A0508F7
:101C40000100000000000000000000000000000093
:101C5000000000000E000000000000000000000076
:101C6000000000000000000095A20108EC06002022
:101C7000CF7000202B000000E0110508CE7000207E
:101C800000C80100CC700020E803D007010000006C
:101C90004F4D4E49425553463400000069700020B4
:101CA000000301006870002000030100DDA10108AD
:101CB000B5A10108C807002071A1010825A10108EC
:101CC000400800201DA2010805A20108F408002018
:101CD00091A0010845A00108140C0020ABA2010846
:101CE000A5CB0108F00C0020919E01080000000027
:101CF000400D0020D5CE010829A501081C0E0020AA
:101D0000D1A2010800000000D00E002071A301083C
:101D10003DA301085C0F0020FDA3010849A40108B0
:101D200010100020177200200106010011A3010805
:101D3000E5A2010850110020A5A301081DCC01084F
:101D4000F011002079A4010871CC0108B81200201C
:101D50000C72002001030100107205080000000051
:101D60000000000000000000000000001C720508D8
:101D70000800000000000000041400200000000023
:101D8000247205080700000000000000FC1300207A
:101D900000000000347205080D0000000000000083
:101DA000F01300200000000040720508030000004E
:101DB000C5CD0108E413002000000000906A05086A
:101DC0000100000000000000000000000000000012
:101DD000000000000E0000000000000000000000F5
:101DE000000000004872050800000000000000002C
:101DF0000000000000000000587205080A00000002
:101E0000000000006072050800000000687205080C
:101E10000A00000000000000CA2F050800000000B2
:101E2000707205080A00000000000000A672002081
:101E300000000000787205080A00000000000000A1
:101E40001014002000000000906A05080100000046
:101E50000000000000000000000000000000000082
:101E60000E00000000000000000000000000000064
:101E70008072050800000000000000000000000063
:101E8000000000008C72050803000000C5CD0108A9
:101E900044140020000000009872050803000000B0
:101EA000C5CD01083814002000000000A07205080C
:101EB00003000000C5CD01082C1400200000000024
:101EC000A8720508050000000000000067700020EF
:101ED00000000000B07205080700000000000000CC
:101EE0002414002000000000BC7205080700000058
:101EF000000000001C14002000000000906A05088B
:101F000001000000000000000000000000000000D0
:101F1000000000000E0000000000000000000000B3
:101F200000000000C872050800000000000000006A
:101F30000000000000000000DC7205080300000043
:101F4000C5CD01087414002000000000E8720508E7
:101F500003000000C5CD0108F000002000000000D3
:101F6000F072050803000000C5CD010868140020C8
:101F700000000000F872050803000000C5CD01084C
:101F80005C14002000000000606E050803000000E3
:101F9000C5CD01085014002000000000906A05081B
:101FA0000100000000000000000000000000000030
:101FB000000000000E000000000000000000000013
:101FC000000000000473050800000000000000008D
:101FD0000000000000000000147305080700000066
:101FE000CDCC0108D014002000000000846E05084C
:101FF00003000000C5CD0108C4140020000000004B
:102000002073050803000000C5CD0108B8140020A6
:10201000000000002873050803000000C5CD01087A
:10202000AC14002000000000307305080700000019
:10203000B1CC0108A414002000000000407705087E
:1020400003000000C5CD0108981400200000000026
:102050003C73050803000000C5CD01088C14002066
:10206000000000004873050803000000C5CD01080A
:102070008014002000000000906A050801000000A4
:102080000000000000000000000000000000000050
:102090000E00000000000000000000000000000032
:1020A00065A2010835A20108D8140020F5A4010892
:1020B000000000006415002001A10108DDA0010856
:1020C000F01500200000000000000000A416002011
:1020D000CDA40108E9CC0108441700205473050879
:1020E00000000000000000000000000000000000F0
:1020F0006073050803000000C5CD010850180020DA
:10210000000000006873050803000000C5CD010849
:102110004418002000000000005D050803000000D6
:10212000C5CD0108381800200000000074730508B0
:1021300003000000C5CD01082C180020000000009D
:102140008073050803000000C5CD01082018002099
:102150000000000088730508020000004DCF010850
:10216000000000000000000090730508020000005D
:102170004DCF010801000000000000009C7305081D
:10218000020000004DCF0108020000000000000026
:10219000000000000E000000000000000000000031
:1021A000000000004670002088136F170100000037
:1021B0004870002088136F1700000000A8730508FE
:1021C000000000000000000000000000000000000F
:1021D000B873050808000000000000003019002056
:1021E00004000000C473050808000000000000009F
:1021F0002419002000000000106F050804000000F2
:10220000A9C901080000000000000000906A05084C
:1022100001000000000000000000000000000000BD
:10222000000000000E0000000000000000000000A0
:10223000000000004470002088136F1701000000A8
:10224000CC9D002088136F1700000000D59F010867
:10225000000000003C190020F17500200100000082
:1022600090120508CE9D0020010000009C12050878
:10227000C49D002002000000A4120508D692002090
:102280000000000000000000D492002000000000C8
:1022900000000000D29200200000000000000000BA
:1022A000D09200200000000000000000CE9200202C
:1022B0000000000000000000CC92002000000000A0
:1022C000000000002C1F00200000000000000000A3
:1022D0004370002002000000B012050800740508D9
:1022E00000000000000000000000000000000000EE
:1022F000B87305080800000000000000C0190020A5
:1023000004000000C473050808000000000000007D
:10231000B419002000000000106F05080400000040
:10232000A59F01080000000000000000906A050859
:10233000010000000000000000000000000000009C
:10234000000000000E00000000000000000000007F
:1023500000000000107405080000000000000000EC
:102360000000000000000000207405080D000000BF
:10237000F9CA0108F0190020040000002C740508B7
:102380000D000000FD9F0108E4190020040000007A
:10239000387405080D000000BDCA0108D8190020D6
:1023A000000000004474050803000000EDA60108C9
:1023B000CC1900200800000050740508030000003C
:1023C000C5CD0108F41C002000000000906A05083B
:1023D00001000000000000000000000000000000FC
:1023E000000000000E0000000000000000000000DF
:1023F00000000000886A05080000000000000000DE
:102400000000000000000000436805080400000010
:10241000C1C901080000000000000000906A050822
:1024200001000000000000000000000000000000AB
:10243000000000000E00000000000000000000008E
:1024400000000000A4740508000000000000000067
:102450000000000000000000E03E05080D00000044
:1024600000000000501A002004000000B4740508A9
:102470000800000000000000441A002004000000D2
:10248000C07405080800000000000000381A002091
:1024900004000000C87405080800000000000000E7
:1024A0002C1A002004000000D07405080800000069
:1024B00000000000201A002004000000D874050865
:1024C0000800000000000000141A002004000000B2
:1024D000E07405080800000000000000081A002051
:1024E00004000000E8740508080000000000000077
:1024F000FC19002004000000906A0508010000009B
:1025000000000000000000000000000000000000CB
:102510000E000000000000000000000000000000AD
:10252000BD9F0108000000005C1A002000000000B0
:1025300000000000D41A002000000000000000008D
:10254000741B0020CA9D002004000000BC12050876
:10255000C89D0020E0150C1700000000C79D00205A
:1025600008000000681A0508C69D0020050000004C
:10257000D01205080000000000000000C41B00206D
:10258000685E0C00010102FFFF0000000100000076
:102590000000803F0000000000000000000000007C
:1025A000FF000000541905080508040000000000A1
:1025B000D0120508681A0508BC12050800000000C2
:1025C000000000008019050805080A00000000004E
:1025D000D0120508681A05089C11050800000000C3
:1025E000000000000403090412010002EF02014090
:1025F00083045632000201020301000012010002AE
:10260000020200408304405700020102030100005F
:1026100009022000010104C032090400000208067A
:102620005005070581024000000705010240000037
:1026300009026400030100C0320904000001030024
:10264000000009211101000122260007058303086B
:10265000000A080B01020202010009040100010244
:1026600002010005240010010524010002042402D7
:10267000020524060102070582030800FF0904027F
:1026800000020A0000000705010240000007058162
:102690000240000009024300020100C032090400A8
:1026A00000010202010005240010010524010001BF
:1026B000042402020524060001070582030800FF26
:1026C00009040100020A00000007050102400000A1
:1026D0000705810240000000FF00000000FFFF002E
:1026E00000000000AA5505010000010005010905D0
:1026F000A101A10005010930093109320933093569
:102700000934094009381581257F7508950881022B
:10271000C0C0000009022200010100E032090400EB
:102720000001030102000921110100012226000716
:1027300005830308000A00000000000001020304F2
:102740000102030406070809D54103089D48030850
:1027500019440308351F030859210308451F0308BE
:10276000611F03080D1F0308FD1E03080000000081
:10277000000000002D202D2D202D2D2D2D202D2D64
:102780002D2D0000000000000000000000000000EF
:10279000000000AA550B010000AA5507010000AA7D
:1027A000550902000000000001000000C012AA55F7
:1027B00003009F00FF1FFF1F0100000038A400203E
:1027C000000000003025002004000000345C0508F3
:1027D000EC77050800000000E5860308A0860100EC
:1027E00004000000000000000000000000000000E5
:1027F00000000000000000000000000000000000D9
:10280000345C0508747E0508000000008914020885
:10281000E8030000040000000000000000000000C9
:1028200000000000000000000000000000000000A8
:1028300000000000846E0508B83A0508000000009A
:1028400029A302087D00000006000000000000002F
:102850000000000000000000000000000000000078
:1028600000000000000000008C5B05080000000074
:1028700000000000C9420208E80300000300000055
:102880000000000000000000000000000000000048
:102890000000000000000000000000007C7E050831
:1028A0000000000000000000693E0408102700003E
:1028B0000300000000000000000000000000000015
:1028C0000000000000000000000000000000000008
:1028D00028750508000000005D1C0108A5730208AA
:1028E0005F7600000500000000000000000000000E
:1028F00000000000000000000000000000000000D8
:1029000000000000F45D0508000000000000000069
:102910007184020810270000010000000000000080
:1029200000000000000000000000000000000000A7
:102930000000000000000000887E05080000000084
:10294000000000008D140208E803000005000000EC
:102950000000000000000000000000000000000077
:10296000000000000000000000000000947E050848
:102970000000000000000000ED8D0308204E000064
:102980000300000000000000000000000000000044
:102990000000000000000000000000000000000037
:1029A000A47E05080000000000000000598703080D
:1029B000204E0000030000000000000000000000A6
:1029C0000000000000000000000000000000000007
:1029D00000000000B47E05080000000000000000B8
:1029E000891B0208400D03000300000000000000E6
:1029F00000000000000000000000000000000000D7
:102A00000000000000000000F85C05080000000065
:102A100000000000F19903081027000001000000E9
:102A200000000000000000000000000000000000A6
:102A3000000000000000000000000000A45B05088A
:102A40000000000000000000CDE301081027000096
:102A50000300000000000000000000000000000073
:102A60000000000000000000000000000000000066
:102A7000C47E05080000000000000000416201085B
:102A8000A08601000100000000000000000000001E
:102A90000000000000000000000000000000000036
:102AA00000000000905B050800000000000000002E
:102AB000B11A020850C3000001000000000000002D
:102AC0000000000000000000000000000000000006
:102AD00000000000000000000000000000000000F6
:102AE00000000000000000000000000000000000E6
:102AF00000000000000000000000000000000000D6
:102B0000000000000000000000000000846B0508C9
:102B1000000000000000000041180208A861000049
:102B200001000000000000000000000000000000A4
:102B30000000000000000000000000000000000095
:102B4000CC7E050800000000000000005D000208C7
:102B5000A08601000100000000000000000000004D
:102B60000000000000000000000000000000000065
:102B700000000000FC5D05080000000000000000EF
:102B8000494F0208A00F00000100000000000000F3
:102B90000000000000000000000000000000000035
:102BA0000000000000000000D87E050800000000C2
:102BB00000000000D1A7010810270000010000005C
:102BC0000000000000000000000000000000000005
:102BD000000000000000000000000000245D050867
:102BE000000000000000000099890308A00F000009
:102BF00001000000000000000000000000000000D4
:102C000000000000000000000000000000000000C4
:102C1000005D0508000000000000000005660308D4
:102C20001A41000001000000000000000000000048
:102C30000000000000000000000000000000000094
:102C4000000000005C5E05080000000000000000BD
:102C500065270308102700000100000000000000A5
:102C60000000000000000000000000000000000064
:102C700000000000000000000078050800000000CF
:102C800000000000CDD001081A4100000100000042
:102C90000000000000000000000000000000000034
:102CA000000000000000000000000000E47E0508B5
:102CB00000000000000000007D610308400D0300DB
:102CC0000000000000000000000000000000000004
:102CD00000000000000000000000000000000000F4
:102CE000EC7E05080000000000000000451402080A
:102CF000400D030000000000000000000000000084
:102D000000000000000000000000000000000000C3
:102D100000000000F47E0508000000000000000034
:102D200049F1010850C3000003000000000000004A
:102D30000000000000000000000000000000000093
:102D40000000000000000000007F050800000000F7
:102D500000000000B98D030840420F000000000091
:102D60000000000000000000000000000000000063
:102D70000000000000000000000000000C7F0508BB
:102D80000000000000000000BD8A030850C30000DE
:102D90000000000000000000000000000000000033
:102DA0000000000000000000000000000000000023
:102DB000000200051002700B00000000E4B50020C6
:102DC0000800000000000000D4B50020080000004A
:102DD000C12403088D200308F54303080000000008
:102DE000F91E0308A94B0308752403082D410308A5
:102DF0000000000000000000B51E0308491E030883
:102E00003D1E030879380308953803085D38030828
:102E1000413803082538030879240308692003088A
:102E20003543030800000000CD1E030831410308AC
:102E3000492403088D400308000000000000000042
:102E4000C11E030808000000FFFFFFFF391E030832
:102E5000351E0308311E0308251E0308211E030822
:102E60002D1E0308291E0308010000000060024017
:102E7000106002400000000000000000000B000095
:102E800000000000000000000000000000600240A0
:102E9000286002400100000000000000060C000055
:102EA0000000000000000000000000000060024080
:102EB000406002400200000000000000100D000011
:102EC0000000000000000000000000000060024060
:102ED000586002400300000000000000160E0000D1
:102EE0000000000000000000000000000060024040
:102EF000706002400400000000000000200F00008D
:102F0000000000000000000000000000006002401F
:102F1000886002400500000000000000261000004C
:102F200000000000000000000000000000600240FF
:102F3000A060024006000000000000003011000008
:102F400000000000000000000000000000600240DF
:102F5000B86002400700000000000000362F0000AB
:102F600000000000000000000000000000640240BB
:102F70001064024000000000000000000038000063
:102F8000000000000000000000000000006402409B
:102F90002864024001000000000000000639000023
:102FA000000000000000000000000000006402407B
:102FB000406402400200000000000000103A0000DF
:102FC000000000000000000000000000006402405B
:102FD000586402400300000000000000163B00009F
:102FE000000000000000000000000000006402403B
:102FF000706402400400000000000000203C00005B
:10300000000000000000000000000000006402401A
:103010008864024005000000000000002644000013
:1030200000000000000000000000000000640240FA
:10303000A0640240060000000000000030450000CF
:1030400000000000000000000000000000640240DA
:10305000B86402400700000000000000364600008F
:103060000000000000000000000000000000803FA1
:103070000000000000000000000000000000803F91
:103080000000000000000000000000000000000040
:103090000000000000000000000000000000000030
:1030A00000000000010000000000803F0000000060
:1030B00000000000000000000000803F40280020C9
:1030C0000000000000000000000000000000000000
:1030D00000000000000000000000000000000000F0
:1030E00000000000000000000000000000000000E0
:1030F00000000000000000000000000000000000D0
:1031000000000000000000000000000000000000BF
:1031100000000000000000000000000000000000AF
:0431200001000000AA
:1080000090ED057A90ED004AD0ED066AD0ED014A78
:10801000D0ED047A90ED035AD0ED025AA4EE007A26
:10802000B0EE406AB0EE470AB0EE667AA4EE867A09
:1080300067EEC07AA5EE407AE5EE867A80ED057AA5
:10804000C0ED067A704700BFD0ED057A90ED013A99
:10805000D0ED003AD0ED064A90ED024A90ED077A55
:1080600090ED035A90ED086AD0ED045AC0ED067AFF
:10807000F0EE406A27EE830AC0ED056AA3EEA60A79
:1080800080ED087AA4EE240AA5EE470AA5EEC60AFA
:1080900080ED070A704700BFD0ED007A90ED017ABD
:1080A00030EE670AE7EE007AB0EE670AC0ED007ABC
:1080B000704700BF704700BF0028F0B403DA2D23DB
:1080C0000B7040420131092804464FF0010307DDDF
:1080D00003EB83035B00B0FBF3F2092AF8D883B10A
:1080E0000F48A0FB0326B4FBF3F2092A02F1570C58
:1080F00002F1300709DD03FB1244F30801F801CB5C
:10810000EFD100230B70F0BC704703FB1244F3085F
:1081100001F8017BE5D100230B70F0BC704700BF74
:10812000CDCCCCCC884270B44FF0010442D301FBDB
:1081300004F4B0FBF4F58D42F9D2ECB142BB092D49
:1081400004FB150005F1570605F130020EDDB4FB06
:10815000F1F403F8016B7CB1B0FBF4F5092D04FBDD
:10816000150005F1570605F13002F0DCB4FBF1F41F
:1081700003F8012B002CEFD100221A7070BC70475D
:1081800003F8016BB4FBF1F4002CF5D0B0FBF4F56F
:10819000092D04FB150005F1370605F13002EFDC6F
:1081A000B4FBF1F403F8012B002CEFD100221A707C
:1081B00070BC70470546002AEAD1C0E72DE9F047B8
:1081C00014461D4606464FF47A720023204629467F
:1081D00043F074FF4D4BDFF848814D4A4D4F034447
:1081E00088FB03101844D91782FB032CC1EB6010E5
:1081F00088FB002887FB03279C44474AC1EBEC2CF3
:10820000C0EB001E82FB0C29A3EB8E0E1F44434AD9
:1082100086F806E0C1EB27474FEAEC7E08EB000A40
:10822000CEEBA90E82FB07824FEAE0780EEB4E0EF2
:10823000C8EB6A18ACEBCE0CC8EB0818DFF8E4E02A
:1082400086F804C0A0EB880070718EFB0303F8175A
:10825000C0EBE21240F2B55000FB1272C1EBE353E7
:10826000B2F5896F4FEA83073CDA40F2DA239A428B
:1082700042DCB2F5B77FB4BF4FF0000E4FF0010EF5
:108280004FEA4E09DFF8A08009EB0E0308EBC303A9
:108290001FFA8EFCD88A09EB0E0108EBC1011631DA
:1082A0000B2301E031F8020D904218DD013BF9D1BA
:1082B000CE44012338F83E00B37007F5FA67013267
:1082C000121ABC44F270A6F800C0204629464FF4AA
:1082D0007A72002343F0F2FE3281BDE8F087013369
:1082E000DBB2E9E74FF0030CE64640F29650DFF8C8
:1082F00038804FF00609CEE74FF0020CDFF82880F7
:10830000E64640F229404FF00409C4E780BC92C71A
:10831000C5B3A29107452EC2ABAAAA2A73B06D16A7
:1083200089888888792D031120DE040830B40388F9
:108330008278C478154DA3F5FA6303F0030101EBCD
:108340004101013A02EB81029B0835F81250027993
:10835000611E40F2B55404FB03132B4403EB4303AB
:1083600002EBC3034279847909490089C3EB031303
:1083700002EB83032144C3EB031301EB83034FF4AC
:108380007A720021C2FB030130BC704720DE040872
:1083900080436D3803685A1C02601970704700BF33
:1083A0002DE9F047089C2578002B804689460CBFB4
:1083B0004FF0200A4FF0300A661C25B3002A26DD54
:1083C000334601E0024698B113F8011B501E002904
:1083D000F8D1971E60B13D46013D51464046C84721
:1083E0006B1C002BF8DC257827EAE770013045B1DB
:1083F000041B29464046C847301916F8015B002D7A
:10840000F7D1BDE8F087002A03DC2846F9E7002011
:10841000EEE7571EDFE700BF30B401230225322408
:1084200031211022057244704171C27003700371D2
:10843000837030BC704700BFF0B400250E4E00F1D1
:10844000FF3C2F46142165B103788B420BD00346C5
:108450000CEB050403E013F8012F8A4203D0A3427A
:10846000F9D1C155013701350B2D02D016F8011F86
:10847000E9E7F0BC704700BF80DE040830B4152384
:10848000162517243A213B2203703C234570847043
:108490008171C271037230BC704700BF01211F227D
:1084A0000323017042708370704700BF04224FF4B1
:1084B0007A7302704360704730B41D6995420AD3E5
:1084C00014460A4621448D42996938BF2A1B21442B
:1084D00030BC44F045B830BC704700BF0020704746
:1084E0000120704701207047002070474FF4007052
:1084F000024B10609B680B600020704700CA002090
:10850000013A30B4D2B28C1C04EB42040025020FB5
:10851000092AD3B203F130028ABF37330A700B70D5
:108520004D7002318C424FEA0010F0D130BC7047E0
:108530000B4A0C4B10681B681A22C0180A8001D124
:108540000948704710B5094B09491C680822FFF714
:10855000D7FF204604220749FFF7D2FF024810BD8B
:10856000E8F7FF1FECF7FF1F00000020EAF7FF1FEE
:10857000020000201200002004230B8000487047F6
:108580001C00002012230B800048704720000020B0
:108590002322032302704370704700BF08307047E6
:1085A00008307047044A054B126803EB4213184623
:1085B0005B689B69184700BFA8280020B0C3002053
:1085C0000448054B006803EB401318465B685B6981
:1085D000184700BFA8280020B0C30020704700BF84
:1085E000816170476D4B2DE9F04F5C686C4BB3F8BF
:1085F0000AE0B3F804809A894FEA0E2AB4EB0A0421
:108600004FEA1E6B4FF0000587B065EB0B05CDE917
:1086100000450746009C1889019EA0FB044500FB0D
:108620000655E00940EA45604FEA08448C46E911E6
:108630004FEA184510EB0408D888009C41EB050967
:10864000CDE90489A0FB0445B3F8028000FB065580
:10865000200A40EA05604FEAC83429124FEA58451B
:1086600010EB040841EB05090099A2FB010102FB94
:1086700006114FEAD05A4AEA412A1AF5FA634FEA3C
:10868000E15B4BF10004B3F5FA6FCDE9023474F10C
:108690000003424E64DA0524AAFB040104FB0B111B
:1086A00000FB0BF40AFB0144DDE90423A0FB0A01F3
:1086B00021444D104FEA3004121B4FEA900463EB43
:1086C000050344EA8174B8EB0408CDE90423DDE92D
:1086D000023434484FEAA10569EB05094FF0FF3138
:1086E000834274EB010326DA40F6AC501AEB000229
:1086F0004FF000014BEB010302FB03F1A2FB02234D
:1087000003EB4103D400DD00101B45EA527563EB17
:108710000501DDE9044524184D41CDE904450B244C
:10872000A2FB040104FB031149104FEA3000B8EB2F
:10873000000869EB0109DDE900325343009ADDE9E5
:108740000201A2FB02AB0BEB430B4FEADA7242EAE7
:108750004B02801A4FEAEB7361EB0301CDE9020192
:1087600097B1B168A1FB082301FB0933540D5D15D6
:1087700044EAC324DDE90423A21A65EB03031D4682
:10878000D30B43EA45433B60BCF1000F02D0029B90
:10879000CCF8003007B0BDE8F08F00BFA82800205B
:1087A0007C59002024FAFFFF2DE9F04FDFF8DCC1EF
:1087B000754CDCF80C502288B4F90AA0C2EB2513E2
:1087C0005200C2EBE502B4F902505B436A43B4F9CC
:1087D00004501B135D43AD1305EBE225B5F5FA32EA
:1087E0004FEAE57B85B04BF1FF33CDE90023DDE9AE
:1087F00000325343009AA561A2FB0289CDE9020130
:10880000B4F908200199009809EB43095143D317A3
:1088100000FB0311A2FB00230B444FEAEA7B0AFB97
:1088200009F11F0308FB0B13AAFB080119444FEAC7
:10883000102A4AEA016A16034FEA212B47EA125727
:108840001AEB0602E6884BEB070312F1000A43F528
:10885000004BAAFB060106FB0B114A10CB1752EA8C
:10886000030100F08E80B4F91060009806FB09F156
:10887000F71708FB0711A6FB08673944B4F90E8007
:108880008B4601994FEAE87908FB01F100FB0911D9
:10889000A8FB00898944DCF810104FEA4947C1F56C
:1088A000801C47EAD837B2464FEA4846B4F90C80F4
:1088B0001AEB060A66464BEB070BF7174FEAC8069A
:1088C000019600260096F907DDE900674FEACC70B3
:1088D00016EB0A0647EB0B0741EA5C01801B61EBD4
:1088E000070140F6354C8946A0FB0C010CFB091131
:1088F00043F0E4FBB4F91620B4F914A04E13470B6F
:1089000047EAC14702FB06FCD31707FB03CCA2FBD7
:1089100007236344564307FB0366A2FB0723334444
:10892000560E46EAC31632184FEA636747EB010357
:1089300080460AFB01F14FEAEA7B08FB0B17AAFB12
:1089400008013944C60C46EA413612EB06084FEAE4
:10895000E147B4F9122043EB07094FEA182141EA35
:10896000096113010B44029A0AB11B0A1360039BAD
:1089700023B105EB850580352D121D6005B0BDE8DE
:10898000F08F0023EFE700BF90590020A8280020B7
:10899000704770472DE9F041334B344E9A8A748901
:1089A000B6F91450B6F90480B6F90E70B6F920C0C5
:1089B0009B69121B34895443E213B6F912401544E3
:1089C000E40294FBF5F4B6F902501444A4F57A6E6F
:1089D0000EFB0EF20EFB05F50EFB08FEB6F90C8041
:1089E000F4611213574302FB08F2121402EB6E32C9
:1089F000ED1205EBE7270232B6F90050B6F806E0B3
:108A0000921002F5004207EB85070EFB02F207FA0F
:108A10000CF74FEAD23E02374CF25032A3EBA707D5
:108A200042FA0CF37B4355BF5B00B3FBFEF3B3FB91
:108A3000FEF35B0078B11A1202FB02F540F6DE325B
:108A40006A430B4D12145D4302EB254202F6CF62DE
:108A500003EB2213036021B10A235C430834241181
:108A60000C60BDE8F08100BFA82800205859002004
:108A700043E3FFFF4FF40063838270474FF40063CA
:108A8000838270474FF4006383827047012380F82C
:108A900054307047F0B4037C456902681F2B37D906
:108AA000203B2021546899400C4223D010249C4044
:108AB000D160D4605168D940CE074ED4EFF3118312
:108AC000502282F31288EA6B1168C90709D45468EE
:108AD000002C52D1D5E909618E4243D1012285F89B
:108AE0006020DBB283F31188037C02681F2B1946D8
:108AF00014D9203B082150689940084200D0D16029
:108B00000421506801FA03F3184223D1F0BC7047E6
:108B1000202416689C4026420FD11946082310686D
:108B20008B40184200D093600423106803FA01F1CF
:108B30000842EBD09160F0BC7047102199409460DE
:108B400091601168D940CC07B8D5012101FA03F32F
:108B50009360B3E7D360F0BC7047012101FA03F3DF
:108B6000D360ABE7AF690F44D7600ED82E69711A96
:108B70005160AC62002185F86010116841F001017C
:108B8000DBB2116083F31188AEE7711A5160AE62F7
:108B9000F0E700BF70B4037C01681F2B26D9A3F156
:108BA000200520224C68AA40224214BF0122002244
:108BB000D2B142691B481C4C02EB420200EB42124C
:108BC000257854682068CDB9E56856892C6824F06A
:108BD00001042C6082891F2B22EA060282811AD8A6
:108BE000202202FA03F38B6070BC704720220C68CD
:108BF0009A40224214BF01220022D9E7A4692268C8
:108C000022F001022260828922F480721204120C86
:108C10001F2B8281E4D9A3F1200220239340CB6053
:108C200070BC704720D30020EC0E001070B59D4C36
:108C30002368002B40F005819B4B1A78002A68D0EE
:108C40009A4B19789A4B002964D11868B3F82C51C3
:108C500041628489012A44EA05048481A3F82C1125
:108C600057D0D3F83001B3F85C5241628489022AAC
:108C700044EA05048481A3F85C124AD0D3F8600268
:108C8000B3F88C5341628489032A44EA0504848141
:108C9000A3F88C133DD0D3F89003B3F8BC544162D1
:108CA0008489042A44EA05048481A3F8BC1430D0E2
:108CB000D3F8C004B3F8EC5541628489052A44EA2C
:108CC00005048481A3F8EC1523D0D3F8F005B3F89C
:108CD0001C5741628489062A44EA05048481A3F86A
:108CE0001C1716D0D3F82007B3F84C58416284897A
:108CF000072A44EA05048481A3F84C1809D0D3F864
:108D00005028B3F87C495162908920439081A3F8A0
:108D10007C1970BD5C68198961602568186845F028
:108D2000010540F20D312560A0F848108489012A20
:108D300044F480748481ECD0D3F83441B3F83851D2
:108D4000D3F830016560256845F001052560A0F87D
:108D500048108489022A44F480748481D9D0D3F8DD
:108D60006442B3F86852D3F860026560256845F044
:108D700001052560A0F848108489032A44F4807412
:108D80008481C6D0D3F89443B3F89853D3F89003B2
:108D90006560256845F001052560A0F848108489C4
:108DA000042A44F480748481B3D0D3F8C444B3F863
:108DB000C854D3F8C0046560256845F001052560F6
:108DC000A0F848108489052A44F480748481A0D0D6
:108DD000D3F8F445B3F8F855D3F8F0056560256885
:108DE00045F001052560A0F848108489062A44F45E
:108DF000807484818DD0D3F82447B3F82857D3F8F2
:108E000020076560256845F001052560A0F8481039
:108E10008489072A44F4807484813FF47AAFD3F8BC
:108E20005428B3F85808D3F850385060106840F010
:108E300001001060A3F848109A8942F480729A8168
:108E400070BD05461BF0DEFD217AA9B16DB1194A4E
:108E5000002316890133002E18BF0021AB4202F116
:108E60006002F6D100293FF4E7AE00F51C50103047
:108E7000002320602372DFE62368C31A002BFFF66D
:108E800048AF637A3BB1013BDBB263722BB100F5B3
:108E90007A702060D0E62360CEE6636803442360E6
:108EA000CAE600BF9881002020D60020EC0E0010FA
:108EB00024D6002020D3002010B5027C01681F2A90
:108EC0004FF020030ED94C68203A93401C4208D042
:108ED0000B4A406800241470026822F0010202600C
:108EE000CB6010BD0C6893401C42FAD0044A406825
:108EF00000241470026822F0010202608B60F0E727
:108F0000E8B4002010B5027C01681F2A4FF020034E
:108F10000ED94C68203A93401C4208D00B4A406856
:108F200000241470026822F001020260CB6010BDC0
:108F30000C6893401C42FAD0044A40680024147024
:108F4000026822F0010202608B60F0E77E6300207D
:108F50002DE9F041C40023189B00B749CA58526854
:108F6000958AADB2EFB2FE070B4461D4BE0737D588
:108F7000BFF35F8F1D7EEDB2012D00F0BB80AF4EC1
:108F8000138BBFF35F8F231801EB83031D7E022D2C
:108F900000F0CE80231801EB83031D7E032D05D145
:108FA0009B7E1BB1737F002B40F01A81938896F94A
:108FB0001CC043F480639380231801EB83031B7E62
:108FC000013363450AD1B37F00257577002B40F04C
:108FD0008A80204401EB800000234375BDE8F081C6
:108FE000964E17F0040F96F91CC04DD117F04007AC
:108FF00000F0B280178A1D6AFFB205F80C705FFAA4
:109000008CF56F1C93F818E07BB2DF1CBE453377FC
:109010009C4600F00981271801EB87073F7EBB4281
:10902000CAD105F1020C4FFA8CFC86F81CC0C3E7CC
:109030001588824E25F400652D042D0C15801588A9
:1090400045F4806515809D7E00273777002D3DD043
:10905000757F002D37D0231801EB830301251B7E7C
:109060007577022B03D1138843F400631380231810
:1090700001EB83039B7D43F001031382204401EB4A
:109080008000037EBDE8F0819F7E757F4FF0010E6A
:1090900086F81EE0002F5CD0002D78D1231801EB5C
:1090A00083035B7E002B00F0A48013880CF1010C7D
:1090B0004FFA8CFC43F4007386F81CC013801388AD
:1090C000DF05FCD478E7DB7DFF2BC4D0231801EB50
:1090D00083039D7D05F0FE051582DB7DFF2BCDD042
:1090E000FF233377CAE7938823F440731B041B0CD8
:1090F00093806EE79B7E514E002B3FF441AF737F10
:10910000002B3FF43DAF138823F480631B041B0C3A
:109110001380BFF35F8F138B1388B57743F400730D
:109120001380938896F91CC043F48063938043E7CF
:109130009B7E002B3FF42EAF737F002B3FF42AAFB2
:10914000138896F91CC023F480631B041B0C138046
:1091500016E0002DA2D0A8E72D067FF52DAFBCF1BB
:10916000FF3F6DD0DD6915F80C5015820CF1010C34
:109170001D7E4FFA8CF39D429C4633777FF41CAFE3
:10918000938823F480631B041B0C938014E71F7ED9
:10919000D3F820805FFA8CF5AE44022F4FFA8EFE92
:1091A00017882DD927F480673F043F0C1780178A52
:1091B000FFB208F80C701788D3F820C047F400738A
:1091C0001380138ADBB20CF80E30938805F1020C81
:1091D0004FFA8CFC43F4806386F81CC093806EE7E2
:1091E000938896F91CC023F480631B041B0C9380A6
:1091F000E2E61388012543F48073138075775EE7F8
:1092000047F400771780178AFFB208F80C70178AA6
:10921000D3F8208005F1030C4FFA8CFCFBB286F8E2
:109220001CC008F80E304AE7978827F480673F048F
:109230003F0C9780EFE600BF74870020A82800202D
:10924000DD7D15829D7E37771DB91B7E002B7FF457
:1092500015AF938823F480631B041B0C93800DE7E8
:10926000F0B5876983B0064617B13B68BA885A8360
:109270007069DFF8A8E08389C3244FF47A734FF054
:10928000060C6D464FF6FF710EF1010E03E0013B37
:109290009BB28B4220D002899207F8D5A3B283817A
:1092A0004FF47A7302E0A3B28B4215D00289D20741
:1092B00003F1FF34F7D5828992B20DB12A700135DE
:1092C000BCF1000F0BD00CF1FF3CFF24BEF1000FEE
:1092D000E1D09EF80040D7E71FF0AEF8B76917B1AC
:1092E0003B68BA881A839DF805009DF801509DF8E7
:1092F00002109DF803409DF804209DF8063041EAD5
:10930000052143EA002342EA04220120A6F8501076
:10931000A6F85220A6F8543003B0F0BD8CDE040845
:1093200038B51E4B1B78044600F1250593B1042285
:109330001B49203043F0B8F928461422194943F05C
:10934000B3F9012384F83A30174B1B788BB984F8B2
:109350003B3038BD14222846144943F0A5F9144A7D
:109360000123106884F83A300F4B20621B78002BE1
:10937000EDD0104B186859689A68DD68E560206088
:109380006160A260DD69186959699A69A261012367
:10939000E5612061616184F83B3038BDFD560020F5
:1093A000FE56002003570020DC560020882D0508BB
:1093B000942D0508DD560020014B18681BF0C0BD38
:1093C0000481002010B50021044601201AF0C4FADF
:1093D000207010BD38B500240472451EE1B2022091
:1093E0001AF0BAFA0134082C05F8010FF6D138BD8D
:1093F00000230122036003714371C371037243723E
:10940000C3728271827270472DE9F84FDDE90A64F8
:1094100089461746002120229846054643F006F962
:109420005EB1D6E900327189EB81C3F30F432B8221
:10943000C2F30F43EA822B836982484642F052F915
:1094400017F0100B10D1431E70B119F803202E2A0B
:1094500018BF09EB030104D14AE011F8016D2E2E6B
:109460003ED013F1FF33F8D208280246CA46A8BFFF
:1094700008224FF0000B4FF020336B602B60C5F8D3
:1094800007304946284605F1080643F069F85A4670
:109490005146304643F064F86B1EE81D13F8012F67
:1094A000A2F1610119299CBF203A1A708342F5D1BB
:1094B00005F10B0116F8013BA3F16102192A9CBFCB
:1094C000203B06F8013CB142F4D11823C8F30F4207
:1094D000EF722B73A5F81A80AA82EC61BDE8F88FB1
:1094E000C01A00F1FF3BBBF1030FA8BF4FF0030B05
:1094F000082B03F1010AA8BF0823CA441A46BAE799
:1095000038B52C22002143F091F80346642140F243
:10951000DC5240F2022019745A821321202240F2B8
:109520001A4540F26C74188399760E2002211A773E
:1095300001229D82DC8240F2753540F6430483F8B7
:10954000220083F82A109A7383F82920DD831C8473
:1095500019460248BDE838400DF00ABD9C2D0508AB
:109560002DE9F04F002087B00C461D4601219246A0
:109570001DF0B6FE002D63D005EB0A03DFF8D09492
:10958000DFF8D0B4039355461CE0002D00F0C581F0
:10959000D9F81430AB4264D0D9F81030AB4200F0A7
:1095A0009780D9E90631AB4252D8A94200F26F81C7
:1095B000691A204635F0E4FC039B01359D4204F511
:1095C00000743DD0D9F82060AE42DED8D9F83080A2
:1095D000AE1B4FEAD60AD8F830300AF1020A9A4593
:1095E00006F0070603D3D8F838309A4509D9414622
:1095F000504635F093FC8046002800F04D81C9F8B4
:10960000300098F80430002B40F0E280D8F8287041
:10961000002F00F0DF81D8F83030D8F80C20AAEB0A
:10962000030A06EBCA0A4346204602EB4A224FF4DD
:109630000071B847039B01359D4204F50074C1D108
:10964000002108461DF04CFE002007B0BDE8F08F59
:10965000A942ADD94FF400720021204642F0E6FF46
:10966000AAE7522261204123002622706270A07076
:10967000722284F8E70184F8E631D9F82800E37013
:109680004FF0FF33314684F8E42184F8E521C4F833
:10969000E8014FF4F07284F8EC3184F8ED3184F88D
:1096A000EE3184F8EF31201D42F0C0FF55216FF0FC
:1096B0005502C4F8F061C4F8F461C4F8F86184F8A4
:1096C000FC6184F8FD6184F8FE1184F8FF2173E7E2
:1096D0004FF400720021204642F0A8FFD44BD54F32
:1096E00003CBEB23022223704FF0080C9026F823C3
:1096F0004FF0580EC4F80300227484F80DC0C4F86B
:10970000071084F801E0A6706375D9F81010D9F835
:109710000830D9F81C602273591A21624FF0FF31CA
:1097200000233F20A1763E21A273E372E3736374AA
:10973000A374E3742375A375E3756376E3766377A7
:10974000A377E3772076217784F82C2007CFD9F808
:10975000187084F82830F61B84F8293084F82A30F1
:1097600084F82B3084F82D3084F82E3084F82F3094
:1097700084F8313084F8323084F8333080236662E4
:10978000C4F8470004F1470684F8403029209423A8
:10979000A94F84F846C084F8420084F843300E2074
:1097A0000D234FF0010C84F8440084F8453084F810
:1097B00030C0716003CF33465527AA269A60C4F89B
:1097C0005200C4F8561084F8FE7184F8FF61F3E685
:1097D0004FF400720021204642F028FFD8F84030B4
:1097E000002E61D104F12007002B77D0D8F830305B
:1097F00092491122CDE900662046FFF705FED8F810
:1098000040301A6C04F1400A002A79D01B6B8C4955
:10981000CDE9006638461122FFF7F6FDD8F844601E
:10982000002E3FF4C9AE4FF4E078CDE904450CE0DA
:109830000024CDE900C4FFF7E7FDB66CBA46A8F1F5
:1098400020080EB3B8F11F0F1ED93468356B96F897
:1098500004E011222B46214650460AF1200706F16A
:109860001C0CBEF1000FE3D172793369019342F011
:1098700021022B46CDF800C0FFF7C6FDB66CBA46F4
:10988000A8F12008002EDDD1DDE9044594E6E91AAF
:10989000204635F075FB8FE6231F04F5FE7243F872
:1098A00004BF9A42FBD187E6002BD8F844200CBFB6
:1098B00001230223C3EB0613002A3FF47DAE966C0E
:1098C000013B002E3FF478AE013BB66CF9D1002E7F
:1098D0003FF472AEA2464FF40078A6E7CDE90066E9
:1098E0003346D9F80C1008222046FFF78DFDD8F832
:1098F0004460002E3FF460AEBA464FF4F07894E72F
:10990000CDE900663346384611224D49FFF77CFD0C
:10991000D8F84460002E86D14EE64FF400722946F6
:10992000204642F083FE80220C2384F8BE2184F876
:10993000C231D9F81000434BD9F8086084F8B85107
:1099400083FB0032C117C1EB2232B2F5806F84F87D
:10995000B95184F8BA5184F8BB5184F8BC5184F8E9
:10996000BD51C4F8C601C4F8CA6142DBFF2384F8C4
:10997000BF3184F8C13184F8C031324B711E83FB92
:109980000132CE17C6EB2232B2F5806F29DA2E4BA8
:1099900084F8C52183FB01030B442C48C6EB6313F9
:1099A000C3EB831680FB0370891B1844DE179210EB
:1099B00022F03F020131C6EBE0100A43034484F871
:1099C000C42184F8C3315522AA2384F8FE2184F8E7
:1099D000FF31F1E539464FF40072204642F026FE91
:1099E000EAE5FF2384F8C33184F8C53184F8C43133
:1099F000E9E7154B84F8C12183FB00730344134F3F
:109A0000C1EB631387FB0317C3EB831C9110A0EB1F
:109A10000C02F818DF1721F03F010132C7EBE0100C
:109A20000A43034484F8C02184F8BF31A5E700BF8E
:109A3000B02D0508BC2D0508CC2D0508A82D05085E
:109A4000AC2D050897554541832008828180808090
:109A500000CA0020DEADBEEF10B5044C04480A4633
:109A6000214629F0B9FE204610BD00BFC8280020BD
:109A7000D82D050810B5044C04480A46214629F0A3
:109A8000ABFE204610BD00BFC8280020E82D050809
:109A900010B5044C04480A46214629F09DFE204694
:109AA00010BD00BFC8280020F42D05080A4608B5DF
:109AB000054920B1054829F08FFE034808BD044838
:109AC00029F08AFE004808BDC8280020202E05087D
:109AD000082E050808B540F2E93300E0A3B1028979
:109AE000013B12F0020F9BB2F8D089B2818140F2A3
:109AF000E93300E043B10289013B12F0010F9BB250
:109B0000F8D08089C0B208BD1EF096FCC0B208BD76
:109B1000427A4AB110B5044604F10A01D0E9003096
:109B200098470023637210BD704700BF437A5A1CE8
:109B30000344D2B242729972037A93420AD84AB16C
:109B400010B5044604F10A01D0E90030984700231B
:109B5000637210BD704700BF48B10123302803FA7B
:109B600001F101D0312803D14A0709D10020704703
:109B70003228F9D03328F7D0342803D18B07F5D019
:109B8000012070473528F9D02028F7D02128F5D0BA
:109B90001028E9D01128E7D01228E5D01328E3D007
:109BA0001428EBD01528E9D0162804D111F00300B1
:109BB00018BF012070471728D8D111F0030018BF33
:109BC00001207047302829D0312829D0322829D0C7
:109BD000332829D0342829D0352829D020282BD043
:109BE00021282BD0102825D0112829D0122829D09F
:109BF000132829D0142829D0152829D0162805D0B3
:109C0000172808BF0F2302D0002070470E23114AE7
:109C100003EB4303134493F8760070470023F6E701
:109C20000123F4E70223F2E70323F0E70423EEE73E
:109C30000523ECE70823EAE70623E8E70723E6E73E
:109C40000923E4E70A23E2E70B23E0E70C23DEE73E
:109C50000D23DCE720DE0408024A136823EA000033
:109C600010607047F4750020F8B50468C4F30D0463
:109C700005460E4604B32F682BF0ACF8092840F0D7
:109C80008880454C236923F440732361236943F49E
:109C900000732361236943F0010323613E602BF0CD
:109CA00099F82369092823F00103236171D12B68F6
:109CB00004332B60002035E0384B394A93422BD9CE
:109CC00002F58042934226D902F5804293422AD976
:109CD00002F58042934228D902F58032934226D978
:109CE00002F50032934224D902F50032934222D980
:109CF00002F50032934220D902F5003293421ED978
:109D000002F5802293421CD9B3F1016F1BD30520C9
:109D10001AF0CAF8FBE708242BF05CF8092814D0E5
:109D20004FF0FF30F8BD1024F6E71824F4E72024A4
:109D3000F2E72824F0E73024EEE73824ECE740246B
:109D4000EAE74824E8E75824E6E7134F3B6923F4A1
:109D500040733B613B6943F400733B613B6923F013
:109D6000F8033B613B6943F002031C433C613B69E0
:109D700043F480333B612BF02DF83B6923F0020361
:109D80003B613B69092823F0F8033B613FF473AF63
:109D9000C6E76FF00100C5E7003C02400040000844
:109DA000FF3F0008F8B504460D468E180027B5425F
:109DB000206900D1F8BDE368591CE160234415F81F
:109DC000012B1A720429F2D118B9A1682046FFF7B5
:109DD0004BFFC4E90370EAE730B402681146531C34
:109DE000036011F8024B0160D31C51780360937833
:109DF000151D05601B0443EA0123D078234343EA81
:109E0000006030BC704700BF0368591C1A460160EF
:109E100012F8021B0260587841EA0020704700BF28
:109E200003685A1C02601878704700BF70B504467A
:109E300008460E4641F056FC31460546024620686B
:109E400042F08EFB20682844206070BD38B504467F
:109E50000068154642F084FB22682A44226038BD1F
:109E6000036810B40A0E5C1C04601A7003680A0CC4
:109E70005C1C04601A7003680A0A5C1C04601A7097
:109E800003685A1C026019705DF8044B704700BFEC
:109E9000036810B40A0A5C1C04601A7003685A1C38
:109EA000026019705DF8044B704700BF03685A1CCC
:109EB000026010B4197003680A0A5C1C04601A700E
:109EC00003680A0C5C1C04601A700368090E5A1CB3
:109ED000026019705DF8044B704700BF03685A1C9C
:109EE000026019700368090A5A1C026019707047F1
:109EF00010EE103AC3F3160242F07E5207EE102A1B
:109F0000DFED167ADFED164A9FED165ADFED165A91
:109F10009FED166ADFED163ADFED166A9FED164AE1
:109F2000E7EE274ADB1507EE903AA4EE875AF8EEE3
:109F3000E77AE5EE075A67EEA37AA5EE876AB5EEF3
:109F4000C00AE6EE077AF1EE10FAD4BFB0EE440A8A
:109F5000B0EE660A37EE800A704700BFDACDFE3CED
:109F6000B9D593BE5CB8903FAA841DC022E0614081
:109F70001872313F07F1B3C2000080FFDFED1D3AD8
:109F8000DFED1D7A9FED1D7A9FED1D4ADFED1D4A25
:109F90009FED1D5ADFED1D5A9FED1D6ADFED1D6A15
:109FA000E0EE237AF4EEC77AF1EE10FA88BFF0EE15
:109FB000477AF4EEC47AF1EE10FAB8BFF0EE447AC4
:109FC000FDEEE77A17EE903AC3F3160242F07E52A6
:109FD00007EE102AA7EE245A03F0FF4300EE103AD2
:109FE000E5EE075AA5EE876AE6EE076A26EE800AD6
:109FF000704700BF3BAA384B00007E4E0000FF4E6A
:10A0000000000000ED185E3C81900FBBAF9D2A3E22
:10A01000B2D19F3EE886023F07EE901AF8EE677ACB
:10A020009FED837A27EE800A20EE070AFDEEC07AC4
:10A0300017EE903A2033402B00F28180DFED7D7ADD
:10A04000B4EEE70AF1EE10FA40F3E680B0EE407AA3
:10A050009FED796ADFED796A01E0B0EE677AB4EEE0
:10A06000E67AF1EE10FA77EE467AF6DC9FED747A36
:10A07000F4EEC77AF1EE10FA40F1D1809FED6E6AEE
:10A08000DFED706A01E0F0EE477AF4EEE67AF1EE89
:10A0900010FA37EE867AF6D4DFED6B7AB4EEE77A13
:10A0A000F1EE10FA40F3A780DFED627A37EEC77A5F
:10A0B00027EE076ADFED655ADFED657ADFED656A49
:10A0C0009FED655AE6EE257A67EE065AE6EE276AB8
:10A0D000F7EE007AA5EEA67AF0EE675AE7EE055A9B
:10A0E000E7EE457A87EEA55ADFED577A30EE277A0C
:10A0F000FDEEC76A16EE903A2033402B24D99FED2F
:10A10000577AF6EE006AB7EE006AF7EE004AC4EE40
:10A11000A57A0023836143610362C36180ED045A21
:10A1200067EEA66A27EE866A27EE877AC0ED006A98
:10A13000C0ED026A80ED016A80ED037A7047B7EEE8
:10A14000005AF0EE455ACFE7B4EEE70AF1EE10FA06
:10A150006BDD9FED396ADFED396A01E0B0EE677AB9
:10A16000B4EEE67AF1EE10FA77EE467AF6DC9FED81
:10A17000347AF4EEC77AF1EE10FA53D59FED2E6AD9
:10A18000DFED306A01E0F0EE477AF4EEE67AF1EEC8
:10A1900010FA37EE867AF6D4DFED2B7AB4EEE77A52
:10A1A000F1EE10FA33DCDFED2E7AB4EEE77AF1EE61
:10A1B00010FA44BFDFED227A37EEC77A27EE076A3E
:10A1C000DFED224ADFED226ADFED227AE6EE246A35
:10A1D00067EE064AE6EE267AB7EE006AA4EEA77AA4
:10A1E000F6EE006A36EE476AF8EE007A27EE277A36
:10A1F00066EE266A89E7DFED1A7AB4EEE77AF1EEC9
:10A2000010FA44BFDFED0E7A37EEC77A50E7DFED84
:10A21000097A37EEC77AD1E7F0EE407A26E7B0EE5A
:10A22000677A39E7B0EE677AB6E7F0EE477A9EE7ED
:10A2300027D4D236DB0F4940DB0FC940E4CB1641AF
:10A24000DB0F49C0E4CB16C1DB0FC93F92E741B930
:10A250009730083C15A82ABEF304353F00000000E3
:10A26000DB0FC9BFFDEEC07A17EE903A2033402BCA
:10A2700045D8DFED2D7AB4EEE70AF1EE10FA4DDDA8
:10A28000DFED2A6A9FED2A7A01E0B0EE670AB4EEAC
:10A29000C70AF1EE10FA70EE667AF6DC9FED257AC9
:10A2A000F4EEC77AF1EE10FA3BD5DFED206A9FEDB0
:10A2B000227A01E0F0EE407AF4EEC77AF1EE10FA7D
:10A2C00037EEA60AF6D4DFED1D7AB4EEE70AF1EE1A
:10A2D00010FA17DDDFED147A37EEC00A60EE006A7F
:10A2E0009FED176A9FED177ADFED177AA6EE867A53
:10A2F00020EE266AE6EE877AA6EE270A70479FEDE3
:10A30000130A7047DFED127AB4EEE70AF1EE10FAA5
:10A3100044BFDFED087A37EEC00ADFE7F0EE407A9F
:10A32000BCE7B0EE670ACEE7DB0F4940DB0FC94060
:10A33000E4CB1641DB0F49C0E4CB16C1DB0FC93FAC
:10A3400092E741B99730083C15A82ABE00000000EA
:10A35000DB0FC9BFDFED2E7AB4EEE70AF1EE10FA9B
:10A360004ADDDFED2C6A9FED2C7A01E0B0EE670A42
:10A37000B4EEC70AF1EE10FA70EE667AF6DC9FEDE5
:10A38000277AF4EEC77AF1EE10FA3ED5DFED216AB6
:10A390009FED237A01E0F0EE407AF4EEC77AF1EE19
:10A3A00010FA37EEA60AF6D4DFED1E7AB4EEE70A0D
:10A3B000F1EE10FA14DDDFED167A37EEC00A60EE2A
:10A3C000006A9FED196A9FED197ADFED197AA6EE02
:10A3D000867A20EE266AE6EE877AA6EE270A70478E
:10A3E000DFED147AB4EEE70AF1EE10FA44BFDFEDC8
:10A3F0000B7A37EEC00AE2E79FED087AF0EE407A7A
:10A40000F4EEC77AF1EE10FAC0D4B0EE670ACBE7EB
:10A41000DB0F4940DB0FC940E4CB1641DB0F49C0DD
:10A42000E4CB16C1DB0FC93F92E741B99730083C36
:10A4300015A82ABEDB0FC9BFDFED317A30EE277ACF
:10A44000FDEEC76A16EE903A2033402B02D99FEDFD
:10A450002D0A7047B4EEE70AF1EE10FA4DDD9FEDDC
:10A460002A6ADFED2A6A01E0B0EE677AB4EEE67A96
:10A47000F1EE10FA77EE467AF6DC9FED257AF4EEEF
:10A48000C77AF1EE10FA35D5DFED1F6A9FED217A1C
:10A4900001E0F0EE407AF4EEC77AF1EE10FA37EE12
:10A4A000A60AF6D4DFED167AB4EEE70AF1EE10FA5A
:10A4B0001BDCDFED197AB4EEE70AF1EE10FA44BFC7
:10A4C000DFED137A37EEC00A60EE006A9FED136A83
:10A4D0009FED137ADFED137AA6EE867A20EE266AD8
:10A4E000E6EE877AA6EE270A7047DFED0F7A37EEA1
:10A4F000C00AE9E7B0EE670AD4E7F0EE477ABCE7B6
:10A50000DB0FC93F00000000DB0FC940E4CB164160
:10A51000DB0F49C0E4CB16C1DB0FC9BF92E741B9DD
:10A520009730083C15A82ABEDB0F494002B370B42F
:10A530008E1803E0121B14D1B14215D010F8012B74
:10A54000A2F14103192B11F8013BA3F1410598BF7A
:10A550002032192D03F12004ECD9D21A01D1002B9D
:10A56000EAD1104670BC70470022104670BC70479C
:10A570001046704770B5044608460D4641F0B2F8E3
:10A58000064602E014F8013F43B132462946204610
:10A59000FFF7CCFF0028F5D1204670BD1C462046B1
:10A5A00070BD00BF4FF0FF32FFF7C0BFA0F16103E5
:10A5B000192B98BF20387047A0F14103192B98BF81
:10A5C00020307047202805D0093804288CBF00208F
:10A5D0000120704701207047613819288CBF002086
:10A5E00001207047413819288CBF00200120704796
:10A5F000303809288CBF002001207047A0F13003BB
:10A60000092B07D920F02000413819288CBF0020E1
:10A6100001207047012070472DE9F0411F46064692
:10A6200003461C782046FFF7CDFF1D460133002866
:10A63000F7D12B2C51D02D2C24D0102A804628D095
:10A640004FF0FF33B3FBF2F302FB03FC6FEA0C0C99
:10A650005FFA8CFC013500200BE0303CE4B2944200
:10A6600025DA98422E461DD81AD002FB004015F874
:10A67000014B392CF1D944F02004602C17D9573CF8
:10A68000E4B2ECE74FF00108102A6C7805F10105FF
:10A69000D6D1302C23D06FF070434FF00F0CD9E798
:10A6A0006445E2D907EA08084FF0FF30DFE701B15F
:10A6B0000E60B8F1000F08D027B1B0F1004F28BFED
:10A6C0004FF000404042BDE8F081002FFBD06FF01A
:10A6D0000043984228BF1846F5E78046D4E76C78D7
:10A6E0002046FFF769FF782805F1010605D03546B9
:10A6F0006FF070434FF00F0CACE7AC786FF0704325
:10A7000002354FF00F0CA5E701230A22002183E751
:10A710000378202B024600F10100F9D0092BF7D075
:10A720002D2B00F0A4802B2B03BF5378B7EE000A2B
:10A730000246B7EE000AA3F13001C8B209289FED26
:10A74000577A10D8F2EE046A07EE901AF8EEE77A1C
:10A7500012F8013FE7EE267AA3F13001C8B20928CA
:10A76000B0EE677AF0D92E2B63D003F0DF03452BD0
:10A7700002D020EE070A704710B451782D294FD02F
:10A780002B2979D0A1F13003092B02F101027AD8EB
:10A790000024002303EB830301EB430312F8011FA2
:10A7A000A1F130000928A3F13003F3D9B3F59A7F62
:10A7B0001A4628BF4FF49A72072B6CD9DFED386A1E
:10A7C0001346F7EE007A083B072B67EEA67AFAD815
:10A7D00002F00702DAB1F2EE046A012A67EEA67A05
:10A7E00015D0022A67EEA67A11D0032A67EEA67A60
:10A7F0000DD0042A67EEA67A09D0052A67EEA67A5C
:10A8000005D067EEA67A062A18BF67EEA67A002C56
:10A810003BD087EE277A5DF8044B20EE070A70479D
:10A820009178A1F13003092B02F1020230D8012402
:10A83000AFE75378A3F13001C8B2092802F1010251
:10A8400093D8F2EE046AF0EE665A07EE901AF8EE2C
:10A85000E77A12F8013F87EEA66AA3F13001C8B289
:10A86000092866EEA56A37EE067AEED97DE75378B9
:10A87000BFEE000A02465EE79178A1F13003092B92
:10A8800002F1020284D9F7EE007A27EE277AC2E7B6
:10A89000F7EE007ABDE7F7EE007A9BE700000000D4
:10A8A00020BCBE4CB5EEC00ADFED317AF1EE10FAF5
:10A8B000CCBF30EE270A30EE670ADFED2E7A20EEAD
:10A8C000270A30B5FDEEC07A87B017EE904A0546EC
:10A8D00084EAE470002303A9A0EBE470CDE900331F
:10A8E000029337F013F9002CACBF20232D2303A8CB
:10A8F0008DF8003040F0F6FE012803A924D002288C
:10A900002DD0032805BF3023684668468DF80130F6
:10A9100041F094FE684640F0E5FE0338C4B222469A
:10A920006946284641F0C0FE00232B55284640F0DA
:10A93000D9FE2E22431C2A540DEB0401E81841F0E5
:10A9400099FE284607B030BD302368468DF80130A7
:10A950008DF802308DF8033041F070FEDAE73023D5
:10A9600068468DF801308DF8023041F067FED1E77E
:10A970006F12033A00007A44F8B5064615460846B9
:10A98000B6FBF2F434B905FB14640C4B1B5D00F804
:10A99000013BF8BDB4FBF2F75FB905FB1747074B66
:10A9A00005FB1464DA5D00F8012B1B5D00F8013B28
