:020000040800F2
:10000000F0FF001099F70408B1790308E59202089F
:1000100035F8040835F8040835F804080000000035
:10002000000000000000000000000000BD7903088F
:10003000B979030800000000B5790308616C020873
:1000400035F8040835F8040835F8040835F80408CC
:1000500035F8040835F80408419B0008319C000875
:10006000F59B0008B99B00087D9B0008BDE10008D6
:10007000ADE100089DE100088DE1000879E100088C
:1000800065E1000851E1000835F8040835F8040876
:1000900035F8040835F8040835F80408059B00080D
:1000A000054D02089152020835F80408155402085B
:1000B000D15102081151020845500208210F0108D0
:1000C000290F0108110F0108190F010835F804085C
:1000D00035F80408D96D020835F804083D6D0208AA
:1000E00039A0020835F8040895BF0308354C02080A
:1000F000D54D020835F80408A54E02083DE1000878
:1001000035F8040835F80408754F020835F8040876
:1001100035F8040835F804089DF9010889F9010843
:1001200029E1000815E1000801E10008EDE0000800
:10013000D9E0000835F8040835F8040835F8040853
:1001400035F8040835F8040835F80408D9AE030872
:10015000C5E00008B1E000089DE00008A16C0208BD
:10016000010F0108090F010835F8040835F80408E3
:1001700035F8040835F8040835F8040835F804089B
:0801800035F8040835F8040805
:0801880040F304000100000037
:1001900010020100B0320020AC320020000000004C
:1001A00044070008031233001C5A00204F5A002055
:1001B000000000004807000825009600D0580020E5
:1001C000665900200000000000000000F6210C002D
:1001D000C8570020D4570020000000007C0700080A
:1001E00015007000E856002058570020000000005D
:1001F000000000002A0060002856002088560020D9
:10020000000000003DC103082C001000FC59002034
:100210000C5A002000000000B92D01082B0024001A
:10022000A65A0020825A002000000000892D0108F3
:1002300029107800E05700205858002000000000E6
:100240000000000004120200285D0020545E00201F
:1002500000000000880700080F020100245D002054
:10026000585E0020000000008A0700081400030008
:100270002156002024560020000000008C070008B2
:1002800010100200805D00205C5E00200000000075
:1002900090070008281010009C5C0020605E002081
:1002A0000000000095100108230010002C550020CC
:1002B000705E002000000000B1100108F821060067
:1002C000CA5A0020805E002000000000920700084B
:1002D00018020200946400207465002000000000F1
:1002E0000000000017020B008964002078650020E0
:1002F0000000000039840008070202003C6500206D
:1003000084650020000000009807000802000C002F
:100310001465002088650020000000000000000037
:1003200006020C0008650020946500200000000013
:10033000959200080812090080640020A065002042
:10034000000000007D840008F701060076640020AC
:10035000AC650020000000009A0700080A020A00AD
:10036000EC630020B465002000000000A007000836
:1003700003000100085F0020C065002000000000AD
:10038000000000001A023C00C4660020046B00203C
:1003900000000000A593000827000400C0660020AC
:1003A000406B002000000000AA0700081B020800A4
:1003B00078850020FC85002000000000C58400082E
:1003C000012008004884002004860020000000006E
:1003D000AE07000819000500F88400200C860020F4
:1003E00000000000B607000837001E00D08400207F
:1003F0001486002000000000BC0700081E00050055
:10040000D86F00203486002000000000DA070008C2
:100410001B00F400E46C00203C860020000000007B
:10042000B1C302080E0202002C77002030870020A2
:1004300000000000E00700082F0011009C8500204C
:100440003487002000000000E207000805100600C5
:10045000DC8500204887002000000000F407000829
:10046000F53170005C6C0020508700200000000017
:1004700099EA020826000E00D0870020C0870020DD
:10048000000000007DAB02080B201000CE6C0020A5
:100490000488002000000000FA0700081F201C004C
:1004A0003C6C002014880020000000000A080008AE
:1004B000050204003C72002030880020000000008B
:1004C00026080008160008005C89002064890020C6
:1004D000000000002A08000803010A00FC9B00201D
:1004E000909C002000000000320800081302030066
:1004F000BC9100209C9C0020000000003C080008EB
:100500001A000E0014AF002040B1002000000000CF
:10051000400800080400800038E50020F0E50020D5
:1005200000000000000000000D003400D4E40020B2
:1005300070E6002000000000DD1F0308FD0124001C
:1005400004DC0020A4E60020000000009132020834
:1005500018202C00D4DB0020C8E60020000000009A
:100560006D940008061018002CCF0020F4E600203F
:1005700000000000E1C10308FB01010028CF0020BA
:100580000CE700200000000041940008FC01090075
:10059000F4CD002010E70020000000005194000876
:1005A0000A402000CCCD00201CE700200000000005
:1005B0004E08000834001000C0CC00203CE70020AA
:1005C00000000000B5C103081102080098CC00200B
:1005D0004CE70020000000006E0800081212040022
:1005E00090CC002054E700200000000076080008AE
:1005F00012200D0080CC002058E7002000000000F1
:100600007A080008FF010800F4C5002068E7002010
:1006100000000000ADDD0008F901040088C50020DD
:1006200070E700200000000009330208FA01020010
:1006300028BF002074E7002000000000C5850008E6
:1006400002020300E8B1002078E70020000000006B
:10065000000000000C020300A4B100207CE7002091
:1006600000000000B584000811000C00B4B30020A5
:1006700080E7002000000000991D0308FE0109002A
:100680009CB300208CE700200000000019840008C3
:100690000E5020016AFC00209400012000000000A0
:1006A00065C1030813000400F4FE0020B40101201A
:1006B000000000008808000801010400E4FB00209D
:1006C000B80101200000000000000000000104004B
:1006D000DCFB0020BC010120000000008C080008A9
:1006E00002010300D7FB0020C00101200000000030
:1006F000CDA701080902010088FF0020C4010120E4
:1007000000000000900800080C106C00B4FD0020F0
:10071000C80101200000000051A7010801020500E6
:10072000ECFB0020340201200000000015AA0408A0
:100730000002050050FE00203C02012000000000E5
:0407400000000000B5
:1007440000000000000000000000000000000000A5
:100754000000000000000000000000000000000095
:100764000000000000000000000000000000000085
:100774000000000000000100000000000100000073
:10078400020200001118000003000000000504012B
:10079400F4011900023C24010000000000004A0199
:1007A400B400D601000020030000E8036400040A3A
:1007B400000100002801000020003200C800D0071A
:1007C4009600140032002800B004400600055000D2
:1007D40014000F00080100000100000000000000E8
:1007E4000000000000000000000000000000000005
:1007F4002000020100002B21231E640101000000DF
:1008040001000A01290000000000000100000005A9
:1008140000000102030000000000000000000000CE
:10082400000000000000C409000019012828040188
:1008340001006C1600000000000000007E05EA05BF
:10084400B4053200E803D0070000003001000000C6
:10085400000064002C010000000000000000000003
:10086400020000019E077D004632000000000101E5
:100874000101FFFFFFFF000000010000054F42538C
:0D0884004400000000200430900100002816
:100891001A0300000000000000000000000000003A
:1008A1000000000000000000000000000403090433
:1008B10012010002000000408304205700020102DF
:1008C10003010000659A000821850008C599000808
:1008D10005850008219A0008D5990008F5840008CB
:1008E100DC00002039BF00080D85000809850008DB
:1008F10001850008CD940008FD840008F9840008F2
:100901009813050811AA030851700308F9A80308F0
:100911000000000000000000499E0308719E0308CA
:10092100000000000000000000000000B16E03089C
:10093100B9850008AD850008C19A0008DD9A000854
:1009410065850008A59A0008899A00080100000041
:10095100500100000700000002000000000000003C
:1009610000000000010203040607080900800202DA
:100971001F00000053544D202020202050726F642E
:10098100757420202020202020202020302E30317E
:10099100D6010000D11E0108000000000000000087
:1009A10001000000000101010001FFFF0100000042
:1009B100010000000000803F000000000000000076
:1009C10000000000FF00000028420508050804009F
:1009D1000000000000610508544E0508EC600508A0
:1009E10000000000000000005442050805080A004C
:1009F1000000000000610508544E0508CC5F0508A1
:100A01000000000000000000685E0C00010102FF10
:100A1100FF00000001000000000001FFFF010000D5
:100A21000000803FFF1FFF1FE08700200000000043
:100A310094070020040000007C8D050838A00508FB
:100A4100000000006D1D0308A086010004000000E5
:100A51000000000000000000000000000000000095
:100A61000000000000000000000000007C8D05086F
:100A710094A0050800000000D1380208E803000036
:100A81000400000000000000000000000000000061
:100A91000000000000000000000000000000000055
:100AA10064B20508207005080000000065B1010866
:100AB1007D000000060000000000000000000000B2
:100AC1000000000000000000000000000000000025
:100AD10000000000D48C05080000000000000000A8
:100AE10085620208E8030000030000000000000026
:100AF10000000000000000000000000000000000F5
:100B010000000000000000009CA00508000000009B
:100B11000000000031C4030810270000030000009A
:100B210000000000000000000000000000000000C4
:100B3100000000000000000000000000A8A005085F
:100B410000000000BD290108759302085F760000CE
:100B5100050000000000000000000000000000008F
:100B61000000000000000000000000000000000084
:100B71003C8F0508000000000000000079A0020879
:100B8100102700000100000000000000000000002C
:100B91000000000000000000000000000000000054
:100BA10000000000ACA005080000000000000000EB
:100BB100652F0208E80300000500000000000000A6
:100BC1000000000000000000000000000000000024
:100BD1000000000000000000B8A0050800000000AF
:100BE1000000000075240308204E000003000000EF
:100BF10000000000000000000000000000000000F4
:100C0100000000000000000000000000C8A005086E
:100C11000000000000000000E11D0308204E00005C
:100C210003000000000000000000000000000000C0
:100C310000000000000000000000000000000000B3
:100C4100D8A005080000000000000000613602087D
:100C5100400D030003000000000000000000000040
:100C61000000000000000000000000000000000083
:100C710000000000408E0508000000000000000098
:100C81009930030810270000010000000000000057
:100C91000000000000000000000000000000000053
:100CA1000000000000000000EC8C050800000000BE
:100CB1000000000065F50208102700000300000095
:100CC1000000000000000000000000000000000023
:100CD100000000000000000000000000E8A005087E
:100CE100000000000000000051690108A086010019
:100CF10001000000000000000000000000000000F2
:100D010000000000000000000000000000000000E2
:100D1100D88C050800000000000000008935020899
:100D210050C30000010000000000000000000000AE
:100D310000000000000000000000000000000000B2
:100D410000000000000000000000000000000000A2
:100D51000000000000000000000000000000000092
:100D61000000000000000000000000000000000082
:100D71000000000000000000F0A0050800000000D5
:100D81000000000019330208A86100000100000002
:100D91000000000000000000000000000000000052
:100DA100000000000000000000000000FCA0050899
:100DB1000000000000000000A9D60408A086010080
:100DC1000100000000000000000000000000000021
:100DD1000000000000000000000000000000000012
:100DE100448F05080000000000000000FD6E0208AD
:100DF100A00F000001000000000000000000000042
:100E010000000000000000000000000000000000E1
:100E11000000000008A1050800000000000000001B
:100E2100B5BF02081027000001000000000000000B
:100E310000000000000000000000000000000000B1
:100E410000000000000000006C8E0508000000009A
:100E51000000000021200308A00F00000100000095
:100E61000000000000000000000000000000000081
:100E7100000000000000000000000000488E05088E
:100E81000000000000000000FD1403081A410000EA
:100E91000100000000000000000000000000000050
:100EA1000000000000000000000000000000000041
:100EB100A48F0508000000000000000031A802080E
:100EC10010270000010000000000000000000000E9
:100ED1000000000000000000000000000000000011
:100EE100000000004CA00508000000000000000008
:100EF100E9DA04081A4100000100000000000000C6
:100F010000000000000000000000000000000000E0
:100F1100000000000000000014A10508000000000E
:100F210000000000F1CE0208400D030000000000A7
:100F310000000000000000000000000000000000B0
:100F41000000000000000000000000001CA10508D6
:100F51000000000000000000212F0208400D0300E6
:100F61000000000000000000000000000000000080
:100F71000000000000000000000000000000000070
:100F810024A1050800000000000000002903030857
:100F910050C300000300000000000000000000003A
:100FA1000000000000000000000000000000000040
:100FB1000000000030A10508000000000000000052
:100FC1004124030840420F0000000000000000001F
:100FD1000000000000000000000000000000000010
:100FE10000000000000000003CA105080000000016
:100FF100000000004521030850C30000000000006C
:1010010000000000000000000000000000000000DF
:1010110000000000000000000000000001000000CE
:10102100FFFFFFFF000200051002700B000000002F
:101031007C89002008000000000000006C8900206D
:1010410008000000C974030895700308BDA20308D5
:1010510000000000016F030871AA03087D740308F2
:10106100F59F03080000000000000000BD6E0308AA
:101071007D6D0308716D0308419703085D970308AF
:101081002597030809970308ED960308817403085F
:1010910071700308FDA1030800000000D56E03086C
:1010A100F99F030851740308559F030800000000CD
:1010B10000000000C96E03080403090412010002C4
:1010C100EF020140830456320002010203010000D5
:1010D1001201000202020040830440570002010293
:1010E1000301000009022000010104C032090400CB
:1010F10000020806500507058102400000070501AE
:101101000240000009026400030100C0320904002A
:10111100000103000000092111010001222600073E
:1011210005830308000A080B0102020201000904F9
:101131000100010202010005240010010524010043
:1011410002042402020524060102070582030800A5
:10115100FF09040200020A00000007050102400025
:10116100000705810240000009024300020100C09E
:1011710032090400000102020100052400100105EA
:10118100240100010424020205240600010705824E
:10119100030800FF09040100020A0000000705011D
:1011A100024000000705810240000000FF0000002E
:1011B10000FFFF0000000000AA550501000000002B
:1011C10005010905A101A100050109300931093213
:1011D100093309350934094009381581257F750816
:1011E10095088102C0C0000009022200010100E04F
:1011F100320904000001030102000921110100016B
:101201002226000705830308000A000000000000F1
:101211000102030401020304060708099DA0030853
:1012210065A70308E1A203083D6F03086171030884
:101231004D6F0308696F0308156F0308056F0308F5
:1012410000000000000000002D202D2D202D2D2D4F
:101251002D202D2D2D2D000000000000000000008C
:1012610000000000000000AA550B010000AA55076C
:10127100010000AA55090200000000000100000061
:10128100C012AA5503009F000000803F000000002B
:1012910000000000000000000000803F000000008E
:1012A100000000000000000000000000000000003D
:1012B100000000000000000000000000000000002D
:1012C100010000000000803F00000000000000005D
:1012D10000000000FFFFFFFF0000803F080000004A
:1012E100FFFFFFFF6D6D0308696D0308656D03085E
:1012F100596D0308556D0308616D03085D6D0308A1
:101301000060024010600240000000000000000088
:10131100000B0000000000000000000000000000C1
:10132100006002402860024001000000000000004F
:10133100060C00000000000000000000000000009A
:101341000060024040600240020000000000000016
:10135100100D00000000000000000000000000006F
:1013610000600240586002400300000000000000DD
:10137100160E000000000000000000000000000048
:1013810000600240706002400400000000000000A4
:10139100200F00000000000000000000000000001D
:1013A100006002408860024005000000000000006B
:1013B10026100000000000000000000000000000F6
:1013C10000600240A0600240060000000000000032
:1013D10030110000000000000000000000000000CB
:1013E10000600240B86002400700000000000000F9
:1013F100362F000000000000000000000000000087
:10140100006402401064024000000000000000007F
:101411000038000000000000000000000000000093
:101421000064024028640240010000000000000046
:10143100063900000000000000000000000000006C
:10144100006402404064024002000000000000000D
:10145100103A000000000000000000000000000041
:1014610000640240586402400300000000000000D4
:10147100163B00000000000000000000000000001A
:10148100006402407064024004000000000000009B
:10149100203C0000000000000000000000000000EF
:1014A1000064024088640240050000000000000062
:1014B10026440000000000000000000000000000C1
:1014C10000640240A0640240060000000000000029
:1014D1003045000000000000000000000000000096
:1014E10000640240B86402400700000000000000F0
:1014F100364600000000000000000000000000006F
:1015010001000000E0010000FFFFFFFF01010100F9
:1015110031AC040800000000F40D0020ACB805084F
:1015210000000000000000000000000000000000BA
:101531004C9D05080000000000000000800E002006
:101541000400000058B805080D00000095C7040804
:101551006828002000000000D4B105080D0000003B
:10156100BDC704085C280020000000004CB305083A
:1015710008000000000000005028002004000000C6
:1015810040B205080D000000E5AC04084428002025
:1015910000000000FCB20508030000000DCA0408A9
:1015A1003828002000000000BCB805080300000036
:1015B1000DCA04082C2800200000000084AE050894
:1015C1000100000000000000000000000000000019
:1015D100000000000E0000000000000000000000FC
:1015E10000000000ACB80508000000000000000089
:1015F10000000000000000004C9D050800000000F4
:1016010000000000800E00200400000004B805085E
:101611000300000001B30408202800200800000096
:1016210040B205080D000000E5AC04084428002084
:1016310000000000FCB20508030000000DCA040808
:101641003828002000000000BCB805080300000095
:101651000DCA04082C2800200000000084AE0508F3
:101661000100000000000000000000000000000078
:10167100000000000E00000000000000000000005B
:1016810000000000C4B805080000000000000000D0
:1016910000000000000000004C9D05080000000053
:1016A10000000000800E0020040000000CB80508B6
:1016B100030000000DCA0408742800200000000087
:1016C10084AE0508010000000000000000000000D9
:1016D10000000000000000000E00000000000000FB
:1016E100000000000000000020700020702D72003A
:1016F10008000000425702000000010642570200A4
:10170100000001060000000000000000DC230020B2
:101711002D202D2D202D2D2D2D202D2D2D000000A6
:1017210000000000000000000000000000000000B8
:10173100FFFFFFFFFA0000000100000001000000B0
:1017410058AE050860AE05087CAE05080000000033
:1017510000000000000000000000000022AE0508AB
:10176100040000005DC50408000000000000000046
:1017710084AE050801000000000000000000000028
:1017810000000000000000000E000000000000004A
:101791000000000000000000D8E500200100C4099D
:1017A10000000000D6E500200100C409000000008F
:1017B100D4E500200100C40900000000D2E50020AA
:1017C1000100C40900000000CEE500200100C409A9
:1017D10000000000D0E500200100C4090000000065
:1017E100CCE500200100C40900000000CAE500208A
:1017F1000100C40900000000FEFB00200100C80038
:1018010001000000FCFB00203200307532000000B6
:10181100FAFB0020055A0500F7FB002000FF01003C
:10182100F9FB002001000000B00E0020F5FB0020B4
:1018310002000000F4460508F6FB002000FF01004D
:10184100F8FB002001000000B00E0020F4FB002096
:1018510002000000F4460508EAFB002080C1803E3A
:1018610005000000E8FB002080C1803E050000006B
:10187100E2FB002080C1803E05000000E0FB00206B
:1018810080C1803E05000000DAFB002000FF01005E
:10189100D6FB00200A320100D5FB00200400000025
:1018A100AC5F0508D4FB002002000000C05F050802
:1018B1000000000000000000B80E0020409C002045
:1018C1009CFF2C01000000007C0C00200A0000009D
:1018D100CC5F0508CAFB0020E0150C1700000000D2
:1018E1007E0C002008000000544E05087D0C0020ED
:1018F1000500000000610508CCFB0020020000008B
:10190100E45F05083AFE00200100FF7F01000000AE
:1019110039FE002002000000F05F05085DFC002098
:1019210003000000006005085CFC002003000000CB
:101931000060050894FD00200000F4010100000092
:1019410092FD00200000F4010100000090FD002044
:101951000000F401010000008EFD00200000F401F0
:10196100010000008CFD00200000803E010000000D
:101971008AFD00200000803E01000000B0FD002033
:10198100E803D0070A000000AEFD0020006401005A
:101991000A000000A3FD002000640100A2FD002058
:1019A10000640100AAFD0020006401000A0000009B
:1019B100A9FD0020006401000A000000A8FD00202C
:1019C100006401000A000000ADFD00200064010078
:1019D1000A000000ACFD0020006401000A000000C4
:1019E100ABFD0020006401000A000000A7FD0020FB
:1019F10000FF01000A000000A6FD002000FF010019
:101A01000A000000A5FD002000FF01000A000000FF
:101A110066FC00200000F4010100000064FC0020CD
:101A21000000F4010100000062FC00200000F4014C
:101A31000100000060FC00200000F4010100000032
:101A41005EFC00200000F40101000000A0FD002068
:101A5100006401009EFD00201400E8030100000065
:101A61009CFD0020E80330750A0000009AFD00206B
:101A710000C8010099FD002000C8010098FD002068
:101A810000C8010097FD0020006401000A00000069
:101A91002EFE00200000D0070100000029FE0020DA
:101AA10000C8010028FE002000C8010027FE002018
:101AB10000C801002CFE00200000D007010000003A
:101AC10026FE002000C8010025FE002000C80100FC
:101AD10024FE002000C801002AFE00200000D007DB
:101AE1000100000023FE002000C8010022FE0020AA
:101AF10000C8010021FE002000C80100ACAE0508AD
:101B010000000000000000000000000000000000D4
:101B11000470050809000000000000005C0F0020AF
:101B2100040000000C70050809000000000000001E
:101B3100500F002004000000F0B505080900000066
:101B410000000000440F002004000000449F05082D
:101B51000900000000000000380F00200400000010
:101B6100BCAE050809000000000000002C0F002099
:101B710004000000C4AE05080900000000000000D8
:101B8100200F002004000000CCAE05080900000071
:101B910000000000140F002004000000D4AE05086E
:101BA1000900000000000000080F002004000000F0
:101BB10084AE0508010000000000000000000000E4
:101BC10000000000000000000E0000000000000006
:101BD1000000000000000000C8B00508000000007F
:101BE100000000000000000000000000308D05082A
:101BF1000700000000000000800F0020000000002E
:101C0100D8B005080800000000000000740F002093
:101C110000000000E4B0050808000000000000001A
:101C2100680F00200000000084AE050801000000DC
:101C310000000000000000000000000000000000A3
:101C41000E00000000000000000000000000000085
:101C5100ECB00508000000000000000000000000DA
:101C610000000000FCB005080D00000000000000AD
:101C7100BC0F00200000000004B105080D000000A9
:101C810000000000B00F0020000000000CB10508AA
:101C91000700000000000000A80F00200000000065
:101CA10014B105080D000000000000009C0F002089
:101CB100000000001CB105080D000000000000003C
:101CC100900F00200000000024B10508070000006B
:101CD10000000000880F00200000000084AE05080D
:101CE10001000000000000000000000000000000F2
:101CF100000000000E0000000000000000000000D5
:101D0100000000002CB105080000000000000000E8
:101D11000000000000000000308D05080C000000EC
:101D21000000000000FC00200000000040B1050898
:101D31000C0000000000000002FC00200000000078
:101D410050B105080C0000000000000038FC002024
:101D51000000000060B105080C0000000000000058
:101D61002CFC00200000000074B105080C000000EC
:101D71000000000004FC00200000000074A1050820
:101D81000C0000000000000006FC00200000000024
:101D910080B105080C0000000000000008FC0020D4
:101DA1000000000094B105080C00000000000000D4
:101DB1000AFC0020000000009CB105080C00000096
:101DC100000000000CFC002000000000A4B1050888
:101DD1000C000000000000004AFC00200000000090
:101DE100BCB105080C000000000000000EFC002042
:101DF10000000000C8B105080C0000000000000050
:101E010010FC002000000000147005080C00000008
:101E11000000000012FC002000000000D0B1050805
:101E21000C0000000000000014FC00200000000075
:101E3100DCB105080C0000000000000016FC0020C9
:101E410000000000E8B105080C00000000000000DF
:101E510018FC002000000000F4B105080C0000008F
:101E6100000000001AFC00200000000000B205087C
:101E71000C000000000000001CFC0020000000001D
:101E81000CB205080C0000000000000030FC00202E
:101E91000000000014B205080C0000000000000062
:101EA1002EFC0020000000001CB205080C00000000
:101EB100000000003CFC00200000000028B20508E2
:101EC1000C000000000000003EFC002000000000AB
:101ED10034B205080C0000000000000044FC0020A2
:101EE10000000000F0A005080C0000000000000048
:101EF1001EFC00200000000040B205080C0000009C
:101F01000000000026FC00200000000048B2050887
:101F11000C0000000000000020FC00200000000078
:101F210054B205080C0000000000000022FC002053
:101F31000000000060B205080C0000000000000075
:101F410024FC00200000000068B205080C0000001D
:101F51000000000028FC002000000000508D050852
:101F61000C0000000000000032FC00200000000016
:101F710074B205080C000000000000002AFC0020DB
:101F81000000000080B205080C0000000000000005
:101F91003AFC0020000000008CB205080C00000093
:101FA1000000000034FC00200000000094B205088D
:101FB1000C0000000000000036FC002000000000C2
:101FC1009CB205080C0000000000000040FC00204D
:101FD10000000000A4B205080C0000000000000091
:101FE10042FC002000000000ACB205080C0000001B
:101FF1000000000054FC00200000000084AE050831
:1020010001000000000000000000000000000000CE
:10201100000000000E0000000000000000000000B1
:1020210000000000B4B2050800000000000000003C
:102031000000000000000000C0B205080D00000013
:10204100000000001410002000000000C8B20508C4
:102051000D0000000000000008100020000000003A
:10206100D0B20508070000000000000000100020A9
:1020710000000000DCB205080700000000000000BD
:10208100F80F002000000000E8B205080900000078
:1020910000000000EC0F002000000000F4B2050871
:1020A1000900000000000000E00F00200000000017
:1020B10000B305080900000000000000D40F002053
:1020C1000000000010B30508090000000000000036
:1020D100C80F00200000000084AE050801000000C8
:1020E10000000000000000000000000000000000EF
:1020F1000E000000000000000000000000000000D1
:1021010024B30508000000000000000000000000EA
:102111000000000034B305080500000000000000C5
:102121005BFC00200000000084AE050801000000F7
:10213100000000000000000000000000000000009E
:102141000E00000000000000000000000000000080
:102151003CB3050800000000000000000000000082
:10216100000000004C9D0508000000000000000078
:10217100B80900200400000048B305080D00000064
:10218100C1C50408681000200000000058B8050807
:102191000D000000E9AB04085C1000200000000005
:1021A100D4B105080D000000CDAB0408501000208B
:1021B100000000004CB3050808000000000000000A
:1021C100441000200400000040B205080D0000008A
:1021D10017AB0408381000200000000054B30508B4
:1021E10009000000000000002C1000200400000085
:1021F100FCB20508030000000DCA040820100020ED
:102201000000000084AE050801000000000000008D
:102211000000000000000000000000000E000000AF
:102221000000000000000000000000005CB3050891
:10223100000000000000000000000000000000009D
:102241006CB305080D0000000000000080100020A4
:102251000000000074B305080A000000000000003F
:1022610051FF00200000000080B305080A000000B3
:102271000000000059FF00200000000088B305089D
:102281000A0000000000000061FF002000000000C3
:1022910090B3050808000000000000007410002041
:1022A1000000000098B30508040000002DCC0408CC
:1022B100000000000000000084AE050801000000DD
:1022C100000000000000000000000000000000000D
:1022D1000E000000000000000000000000000000EF
:1022E100A4B3050800000000000000000000000089
:1022F10000000000B8B305080D0000000000000058
:102301009810002000000000C8B305080400000078
:1023110039C804080000000000000000D0B305081F
:102321000D000000000000008C10002000000000E3
:10233100E4B305080400000015C80408000000000B
:102341000000000084AE050801000000000000004C
:102351000000000000000000000000000E0000006E
:10236100000000000000000000000000ECB30508C0
:10237100000000000000000000000000000000005C
:1023810000B405080800000000000000E010002073
:10239100000000000CB40508080000000000000067
:1023A100D41000200000000018B405080800000047
:1023B10000000000C81000200000000024B405083F
:1023C1000800000000000000BC1000200000000018
:1023D10030B405080800000000000000B010002023
:1023E100000000003CB405080800000000000000E7
:1023F100A41000200000000084AE050801000000C8
:1024010000000000000000000000000000000000CB
:102411000E000000000000000000000000000000AD
:1024210048B4050800000000000000005B0E002019
:102431000000000054B405080B000000000000007B
:10244100741100200000000060B405080B000000BA
:102451000000000068110020000000006CB40508B5
:102461000B000000000000005C11002000000000D3
:1024710078B405080B000000000000005011002096
:102481000000000084B405080B00000000000000FB
:10249100441100200000000090B405080B0000006A
:1024A1000000000038110020000000009CB4050865
:1024B1000B000000000000002C11002000000000B3
:1024C100A8B405080B000000000000002011002046
:1024D10000000000B4B405080B000000000000007B
:1024E1001411002000000000C0B40508070000001E
:1024F100000000000C11002000000000C8B4050815
:10250100070000000000000004110020000000008E
:10251100D4B405080B00000000000000F8100020F2
:1025210000000000E0B40508080000000000000001
:10253100EC1000200000000084AE0508010000003E
:10254100000000000000000000000000000000008A
:102551000E0000000000000000000000000000006C
:10256100ECB40508000000000000000000000000BD
:102571000000000000B50508080000000000000090
:10258100B0110020000000000CB505080800000093
:1025910000000000A41100200000000018B505088B
:1025A1000800000000000000981100200000000059
:1025B10024B5050808000000000000008C1100206F
:1025C1000000000030B50508080000000000000010
:1025D100801100200000000084AE05080100000009
:1025E10000000000000000000000000000000000EA
:1025F1000E000000000000000000000000000000CC
:1026010038B505080000000000000000580E002049
:102611000000000048B505080B00000000000000A4
:10262100F41100200000000054B505080700000067
:1026310000000000EC1100200000000060B505085A
:102641000700000000000000E4110020000000006D
:102651006CB505080700000000000000DC11002037
:102661000000000078B50508080000000000000027
:10267100D01100200000000080B50508080000000E
:1026810000000000C41100200000000088B505080A
:102691000700000000000000BC1100200000000045
:1026A10084AE0508010000000000000000000000E9
:1026B10000000000000000000E000000000000000B
:1026C100000000000000000094B5050800000000B3
:1026D10000000000580E002000000000A0B5050811
:1026E100070000000000000064120020000000004C
:1026F100A8B5050807000000000000005C120020DA
:1027010000000000B0B5050807000000000000004F
:102711005412002000000000B8B5050808000000B0
:102721000000000048120020000000000C9F050876
:10273100070000000000000040120020000000001F
:10274100149F050807000000000000003812002057
:10275100000000001C9F05080700000000000000A9
:102761003012002000000000C89F0508080000008A
:10277100000000002412002000000000C0B5050880
:1027810007000000000000001C12002000000000F3
:10279100C8B5050807000000000000001412002061
:1027A10000000000D0B5050807000000000000008F
:1027B1000C12002000000000D8B505080800000038
:1027C10000000000001200200000000084AE050897
:1027D10001000000000000000000000000000000F7
:1027E100000000000E0000000000000000000000DA
:1027F100000000000000000059AF04086C12002026
:1028010059FC00202B0000001060050858FC002036
:1028110000C8010056FC0020E803D00701000000B9
:102821004F4D4E494255534634534400F3FB00206B
:1028310000030100F2FB002000030100A1AE040827
:1028410079AE04084813002035AE0408E9AD040848
:10285100C0130020E1AE0408C9AE040874140020BE
:1028610055AD040809AD0408941700206FAF0408A2
:10287100E5C704087018002055AB040800000000EB
:10288100C018002009CC04080DB204089C190020CE
:1028910095AF040800000000501A00204DB0040854
:1028A10019B00408DC1A0020DDB0040829B10408BD
:1028B100901B0020A1FD002001060100DDAF0408EE
:1028C100A9AF0408D01C002081B004085DC8040829
:1028D100701D002059B10408B9C80408381E002031
:1028E10096FD002001030100E0B50508000000008D
:1028F100000000000000000000000000ECB5050829
:102901000800000000000000841F002000000000FB
:10291100F4B5050807000000000000007C1F00203E
:102921000000000004B605080D00000000000000D2
:10293100701F00200000000010B605080300000011
:102941000DCA0408641F00200000000084AE0508C1
:102951000100000000000000000000000000000075
:10296100000000000E000000000000000000000058
:102971000000000018B6050800000000000000007B
:10298100000000000000000028B605080A00000051
:102991000000000048A105080000000030B605084D
:1029A1000A000000000000005C6305080000000050
:1029B10038B605080A0000000000000030FE0020C3
:1029C1000000000040B605080A00000000000000F9
:1029D100901F00200000000084AE050801000000E7
:1029E10000000000000000000000000000000000E6
:1029F1000E000000000000000000000000000000C8
:102A010048B60508000000000000000000000000BA
:102A11000000000054B60508030000000DCA0408B8
:102A2100C41F00200000000060B60508030000007C
:102A31000DCA0408B81F00200000000068B6050890
:102A4100030000000DCA0408AC1F002000000000B4
:102A510070B605080500000000000000F1FB002031
:102A61000000000078B60508070000000000000023
:102A7100A41F00200000000084B605080700000024
:102A8100000000009C1F00200000000084AE05082B
:102A91000100000000000000000000000000000034
:102AA100000000000E000000000000000000000017
:102AB1000000000090B605080000000000000000C2
:102AC1000000000000000000FCA105080300000058
:102AD1000DCA0408F41F002000000000A4B6050878
:102AE100030000000DCA0408800C00200000000053
:102AF100ACB60508030000000DCA0408E81F002059
:102B010000000000B4B60508030000000DCA040867
:102B1100DC1F00200000000040B205080300000097
:102B21000DCA0408D01F00200000000084AE050873
:102B31000100000000000000000000000000000093
:102B4100000000000E000000000000000000000076
:102B510000000000C0B605080000000000000000F1
:102B61000000000000000000D0B6050807000000CA
:102B710015C90408502000200000000064B20508B7
:102B8100030000000DCA04084420002000000000DA
:102B9100DCB60508030000000DCA04083820002037
:102BA10000000000E4B60508030000000DCA040897
:102BB1002C20002000000000ECB6050807000000F2
:102BC100F9C804082420002000000000849F0508A3
:102BD100030000000DCA04081820002000000000B6
:102BE100F8B60508030000000DCA04080C200020F7
:102BF1000000000004B70508030000000DCA040826
:102C0100002000200000000084AE05080100000043
:102C110000000000000000000000000000000000B3
:102C21000E00000000000000000000000000000095
:102C310029AF0408F9AE040858200020D9B10408CE
:102C410000000000E4200020C5AD0408A1AD040887
:102C5100702100200000000000000000242200205C
:102C6100B1B1040831C90408C422002010B7050815
:102C71000000000000000000000000000000000053
:102C81001CB70508030000000DCA0408D02300206A
:102C91000000000024B70508030000000DCA040865
:102CA100C423002000000000488E05080300000036
:102CB1000DCA0408B82300200000000030B7050841
:102CC100030000000DCA0408AC230020000000002E
:102CD1003CB70508030000000DCA0408A02300202A
:102CE1000000000044B705080200000081CC040880
:102CF10000000000000000004CB7050802000000C1
:102D010081CC0408010000000000000058B705084C
:102D11000200000081CC0408020000000000000055
:102D2100000000000E000000000000000000000094
:102D310000000000D0FB002088136F170100000085
:102D4100D2FB002088136F170000000064B705084C
:102D51000000000000000000000000000000000072
:102D610074B705080800000000000000B02400202E
:102D71000400000080B70508080000000000000002
:102D8100A424002000000000FCB20508040000009B
:102D9100E9C50408000000000000000084AE050839
:102DA1000100000000000000000000000000000021
:102DB100000000000E000000000000000000000004
:102DC10000000000CEFB002088136F1701000000F7
:102DD1007E9C002088136F170000000099AC040846
:102DE10000000000BC240020F1FE002001000000D2
:102DF100C0600508809C002001000000CC6005082F
:102E0100769C002002000000D4600508929A002000
:102E11000000000000000000909A00200000000067
:102E2100000000008E9A0020000000000000000059
:102E31008C9A002000000000000000008A9A002007
:102E41000000000000000000889A0020000000003F
:102E510000000000F0090020000000000000000058
:102E6100CDFB002002000000E0600508BCB70508AA
:102E71000000000000000000000000000000000051
:102E810074B705080800000000000000402500207C
:102E91000400000080B705080800000000000000E1
:102EA1003425002000000000FCB2050804000000E9
:102EB10069AC0408000000000000000084AE0508B1
:102EC1000100000000000000000000000000000000
:102ED100000000000E0000000000000000000000E3
:102EE10000000000CCB70508000000000000000051
:102EF1000000000000000000DCB705080D00000024
:102F010039C704087025002004000000E8B705084F
:102F11000D000000C1AC040864250020040000007D
:102F2100F4B705080D000000FDC60408582500206F
:102F31000000000000B805080300000021B30408E8
:102F41004C250020080000000CB805080300000013
:102F51000DCA0408742800200000000084AE050892
:102F6100010000000000000000000000000000005F
:102F7100000000000E000000000000000000000042
:102F8100000000007CAE0508000000000000000009
:102F9100000000000000000022AE0508040000004F
:102FA10001C60408000000000000000084AE05080E
:102FB100010000000000000000000000000000000F
:102FC100000000000E0000000000000000000000F2
:102FD1000000000060B805080000000000000000CB
:102FE100000000000000000098AB05080D00000083
:102FF10000000000D02500200400000070B8050882
:103001000800000000000000C425002004000000AA
:103011007CB805080800000000000000B825002069
:103021000400000084B8050808000000000000004A
:10303100AC250020040000008CB805080800000041
:1030410000000000A02500200400000094B805083D
:10305100080000000000000094250020040000008A
:103061009CB8050808000000000000008825002029
:1030710004000000A4B805080800000000000000DA
:103081007C2500200400000084AE0508010000003A
:10309100000000000000000000000000000000002F
:1030A1000E00000000000000000000000000000011
:1030B10081AC040800000000DC25002000000000B5
:1030C1000000000054260020000000000000000065
:1030D100F42600207C9C002004000000EC60050820
:1030E1007A9C0020E0150C1700000000799C00205C
:1030F10008000000544E0508789C002005000000DF
:1031010000610508000000000000000044270020C5
:1031110084280020000000000000000000000000E2
:10312100000000000000000000000000000000009E
:10313100000000000000000000000000000000008E
:10314100000000000000000000000000000000007E
:10315100000000000000000000000000000000006E
:10316100000000000000000000000000000000005E
:08317100000000000100000055
:1080000090ED057A90ED004AD0ED066AD0ED014A78
:10801000D0ED047A90ED035AD0ED025AA4EE007A26
:10802000B0EE406AB0EE470AB0EE667AA4EE867A09
:1080300067EEC07AA5EE407AE5EE867A80ED057AA5
:10804000C0ED067A704700BFD0ED057A90ED013A99
:10805000D0ED003AD0ED064A90ED024A90ED077A55
:1080600090ED035A90ED086AD0ED045AC0ED067AFF
:10807000F0EE406A27EE830AC0ED056AA3EEA60A79
:1080800080ED087AA4EE240AA5EE470AA5EEC60AFA
:1080900080ED070A704700BFD0ED007A90ED017ABD
:1080A00030EE670AE7EE007AB0EE670AC0ED007ABC
:1080B000704700BF704700BF0028F0B403DA2D23DB
:1080C0000B7040420131092804464FF0010307DDDF
:1080D00003EB83035B00B0FBF3F2092AF8D883B10A
:1080E0000F48A0FB0326B4FBF3F2092A02F1570C58
:1080F00002F1300709DD03FB1244F30801F801CB5C
:10810000EFD100230B70F0BC704703FB1244F3085F
:1081100001F8017BE5D100230B70F0BC704700BF74
:10812000CDCCCCCC884270B44FF0010442D301FBDB
:1081300004F4B0FBF4F58D42F9D2ECB142BB092D49
:1081400004FB150005F1570605F130020EDDB4FB06
:10815000F1F403F8016B7CB1B0FBF4F5092D04FBDD
:10816000150005F1570605F13002F0DCB4FBF1F41F
:1081700003F8012B002CEFD100221A7070BC70475D
:1081800003F8016BB4FBF1F4002CF5D0B0FBF4F56F
:10819000092D04FB150005F1370605F13002EFDC6F
:1081A000B4FBF1F403F8012B002CEFD100221A707C
:1081B00070BC70470546002AEAD1C0E72DE9F047B8
:1081C00014461D4606464FF47A720023204629467F
:1081D00047F016F94D4BDFF848814D4A4D4F0344A7
:1081E00088FB03101844D91782FB032CC1EB6010E5
:1081F00088FB002887FB03279C44474AC1EBEC2CF3
:10820000C0EB001E82FB0C29A3EB8E0E1F44434AD9
:1082100086F806E0C1EB27474FEAEC7E08EB000A40
:10822000CEEBA90E82FB07824FEAE0780EEB4E0EF2
:10823000C8EB6A18ACEBCE0CC8EB0818DFF8E4E02A
:1082400086F804C0A0EB880070718EFB0303F8175A
:10825000C0EBE21240F2B55000FB1272C1EBE353E7
:10826000B2F5896F4FEA83073CDA40F2DA239A428B
:1082700042DCB2F5B77FB4BF4FF0000E4FF0010EF5
:108280004FEA4E09DFF8A08009EB0E0308EBC303A9
:108290001FFA8EFCD88A09EB0E0108EBC1011631DA
:1082A0000B2301E031F8020D904218DD013BF9D1BA
:1082B000CE44012338F83E00B37007F5FA67013267
:1082C000121ABC44F270A6F800C0204629464FF4AA
:1082D0007A72002347F094F83281BDE8F0870133C9
:1082E000DBB2E9E74FF0030CE64640F29650DFF8C8
:1082F00038804FF00609CEE74FF0020CDFF82880F7
:10830000E64640F229404FF00409C4E780BC92C71A
:10831000C5B3A29107452EC2ABAAAA2A73B06D16A7
:1083200089888888792D03116011050830B4038885
:108330008278C478154DA3F5FA6303F0030101EBCD
:108340004101013A02EB81029B0835F81250027993
:10835000611E40F2B55404FB03132B4403EB4303AB
:1083600002EBC3034279847909490089C3EB031303
:1083700002EB83032144C3EB031301EB83034FF4AC
:108380007A720021C2FB030130BC704760110508FE
:1083900080436D3803685A1C02601970704700BF33
:1083A0002DE9F047089C2578002B804689460CBFB4
:1083B0004FF0200A4FF0300A661C25B3002A26DD54
:1083C000334601E0024698B113F8011B501E002904
:1083D000F8D1971E60B13D46013D51464046C84721
:1083E0006B1C002BF8DC257827EAE770013045B1DB
:1083F000041B29464046C847301916F8015B002D7A
:10840000F7D1BDE8F087002A03DC2846F9E7002011
:10841000EEE7571EDFE700BF30B401230225322408
:1084200031211022057244704171C27003700371D2
:10843000837030BC704700BFF0B400250E4E00F1D1
:10844000FF3C2F46142165B103788B420BD00346C5
:108450000CEB050403E013F8012F8A4203D0A3427A
:10846000F9D1C155013701350B2D02D016F8011F86
:10847000E9E7F0BC704700BFC01105080C4AF0B432
:10848000002302F1080717261625152403EB4303E2
:10849000C118BA42C4544D708E7006D092F904309F
:1084A00054799579D6790432F0E7F0BC704700BF73
:1084B000CC11050801211F22032301704270837033
:1084C000704700BF04224FF47A7302704360704714
:1084D00030B41D6995420AD314460A4621448D42A0
:1084E000996938BF2A1B214430BC47F0D9B930BC48
:1084F000704700BF00207047002070470120704780
:108500000120704700207047002070474FF4007032
:10851000024B10609B680B600020704700C6002073
:1085200003484FF40073806A0860002013607047AE
:108530008CC50020013A30B4D2B28C1C04EB42044A
:108540000025020F092AD3B203F130028ABF373364
:108550000A700B704D7002318C424FEA0010F0D15E
:1085600030BC70470B4A0C4B10681B681A22C018AD
:108570000A8001D10948704710B5094B09491C68A8
:108580000822FFF7D7FF204604220749FFF7D2FF52
:10859000024810BDE8F7FF1FECF7FF1F00000020A6
:1085A000EAF7FF1F020000201200002004230B80C6
:1085B000004870471C00002012230B8000487047C1
:1085C000200000202C22022302704370704700BF5D
:1085D0000830704708307047044A054B126803EBB7
:1085E000421318465B689B69184700BFE8280020C3
:1085F00050BF00200448054B006803EB40131846A9
:108600005B685B69184700BFE828002050BF002066
:10861000704700BF816170476D4B2DE9F04F5C687A
:108620006C4BB3F80AE0B3F804809A894FEA0E2A3B
:10863000B4EB0A044FEA1E6B4FF0000587B065EB00
:108640000B05CDE900450746009C1889019EA0FB5B
:10865000044500FB0655E00940EA45604FEA08443E
:108660008C46E9114FEA184510EB0408D888009CA5
:1086700041EB0509CDE90489A0FB0445B3F802806C
:1086800000FB0655200A40EA05604FEAC83429126B
:108690004FEA584510EB040841EB05090099A2FB8D
:1086A000010102FB06114FEAD05A4AEA412A1AF5A3
:1086B000FA634FEAE15B4BF10004B3F5FA6FCDE9E1
:1086C000023474F10003424E64DA0524AAFB04016B
:1086D00004FB0B1100FB0BF40AFB0144DDE904234E
:1086E000A0FB0A0121444D104FEA3004121B4FEA4F
:1086F000900463EB050344EA8174B8EB0408CDE908
:108700000423DDE9023434484FEAA10569EB050989
:108710004FF0FF31834274EB010326DA40F6AC5090
:108720001AEB00024FF000014BEB010302FB03F1D7
:10873000A2FB022303EB4103D400DD00101B45EA3A
:10874000527563EB0501DDE9044524184D41CDE97F
:1087500004450B24A2FB040104FB031149104FEA5A
:108760003000B8EB000869EB0109DDE90032534342
:10877000009ADDE90201A2FB02AB0BEB430B4FEACF
:10878000DA7242EA4B02801A4FEAEB7361EB0301A3
:10879000CDE9020197B1B168A1FB082301FB0933C0
:1087A000540D5D1544EAC324DDE90423A21A65EBE8
:1087B00003031D46D30B43EA45433B60BCF1000F66
:1087C00002D0029BCCF8003007B0BDE8F08F00BFAC
:1087D000E8280020F45C002024FAFFFF2DE9F04F88
:1087E000DFF8DCC1754CDCF80C502288B4F90AA023
:1087F000C2EB25135200C2EBE502B4F902505B4311
:108800006A43B4F904501B135D43AD1305EBE22535
:10881000B5F5FA324FEAE57B85B04BF1FF33CDE990
:108820000023DDE900325343009AA561A2FB0289CF
:10883000CDE90201B4F908200199009809EB430938
:108840005143D31700FB0311A2FB00230B444FEA53
:10885000EA7B0AFB09F11F0308FB0B13AAFB0801C3
:1088600019444FEA102A4AEA016A16034FEA212BFB
:1088700047EA12571AEB0602E6884BEB070312F1A0
:10888000000A43F5004BAAFB060106FB0B114A1038
:10889000CB1752EA030100F08E80B4F91060009803
:1088A00006FB09F1F71708FB0711A6FB0867394417
:1088B000B4F90E808B4601994FEAE87908FB01F183
:1088C00000FB0911A8FB00898944DCF810104FEA6D
:1088D0004947C1F5801C47EAD837B2464FEA4846B7
:1088E000B4F90C801AEB060A66464BEB070BF71738
:1088F0004FEAC806019600260096F907DDE90067F1
:108900004FEACC7016EB0A0647EB0B0741EA5C0115
:10891000801B61EB070140F6354C8946A0FB0C013A
:108920000CFB091146F06CFDB4F91620B4F914A043
:108930004E13470B47EAC14702FB06FCD31707FB60
:1089400003CCA2FB07236344564307FB0366A2FB49
:1089500007233344560E46EAC31632184FEA6367BC
:1089600047EB010380460AFB01F14FEAEA7B08FB73
:108970000B17AAFB08013944C60C46EA413612EB34
:1089800006084FEAE147B4F9122043EB07094FEA22
:10899000182141EA096113010B44029A0AB11B0A2A
:1089A0001360039B23B105EB850580352D121D60F7
:1089B00005B0BDE8F08F0023EFE700BF085D0020A1
:1089C000E8280020704770472DE9F041334B344EC2
:1089D0009A8A7489B6F91450B6F90480B6F90E7003
:1089E000B6F920C09B69121B34895443E213B6F9CF
:1089F00012401544E40294FBF5F4B6F90250144415
:108A0000A4F57A6E0EFB0EF20EFB05F50EFB08FECA
:108A1000B6F90C80F4611213574302FB08F21214EA
:108A200002EB6E32ED1205EBE7270232B6F9005089
:108A3000B6F806E0921002F5004207EB85070EFB40
:108A400002F207FA0CF74FEAD23E02374CF25032EC
:108A5000A3EBA70742FA0CF37B4355BF5B00B3FBC4
:108A6000FEF3B3FBFEF35B0078B11A1202FB02F5D2
:108A700040F6DE326A430B4D12145D4302EB254291
:108A800002F6CF6203EB2213036021B10A235C4399
:108A9000083424110C60BDE8F08100BFE8280020F4
:108AA000D05C002043E3FFFF4FF4006383827047F4
:108AB0004FF40063838270474FF4006383827047F2
:108AC000012380F854307047F0B4037C4569026894
:108AD0001F2B37D9203B2021546899400C4223D0CA
:108AE00010249C40D160D4605168D940CE074ED448
:108AF000EFF31183502282F31288EA6B1168C907E1
:108B000009D45468002C52D1D5E909618E4243D171
:108B1000012285F86020DBB283F31188037C0268B0
:108B20001F2B194614D9203B082150689940084250
:108B300000D0D1600421506801FA03F3184223D118
:108B4000F0BC7047202416689C4026420FD119467D
:108B5000082310688B40184200D0936004231068EB
:108B600003FA01F10842EBD09160F0BC704710218C
:108B70009940946091601168D940CC07B8D5012123
:108B800001FA03F39360B3E7D360F0BC70470121AF
:108B900001FA03F3D360ABE7AF690F44D7600ED897
:108BA0002E69711A5160AC62002185F8601011685D
:108BB00041F00101DBB2116083F31188AEE7711A55
:108BC0005160AE62F0E700BF70B4037C01681F2BF8
:108BD00026D9A3F1200520224C68AA40224214BFC6
:108BE00001220022D2B142691B481C4C02EB420216
:108BF00000EB4212257854682068CDB9E5685689A3
:108C00002C6824F001042C6082891F2B22EA0602C2
:108C100082811AD8202202FA03F38B6070BC70475D
:108C200020220C689A40224214BF01220022D9E778
:108C3000A469226822F001022260828922F48072F3
:108C40001204120C1F2B8281E4D9A3F120022023ED
:108C50009340CB6070BC704748CF0020CC1100100F
:108C600070B59D4C2368002B40F005819B4B1A7812
:108C7000002A68D09A4B19789A4B002964D1186859
:108C8000B3F82C5141628489012A44EA05048481A5
:108C9000A3F82C1157D0D3F83001B3F85C524162DD
:108CA0008489022A44EA05048481A3F85C124AD02C
:108CB000D3F86002B3F88C5341628489032A44EAF2
:108CC00005048481A3F88C133DD0D3F89003B3F846
:108CD000BC5441628489042A44EA05048481A3F8CF
:108CE000BC1430D0D3F8C004B3F8EC554162848989
:108CF000052A44EA05048481A3F8EC1523D0D3F8AF
:108D0000F005B3F81C5741628489062A44EA050439
:108D10008481A3F81C1716D0D3F82007B3F84C5859
:108D200041628489072A44EA05048481A3F84C1827
:108D300009D0D3F85028B3F87C4951629089204378
:108D40009081A3F87C1970BD5C6819896160256801
:108D5000186845F0010540F20D312560A0F8481073
:108D60008489012A44F480748481ECD0D3F834419E
:108D7000B3F83851D3F830016560256845F0010536
:108D80002560A0F848108489022A44F48074848104
:108D9000D9D0D3F86442B3F86852D3F86002656062
:108DA000256845F001052560A0F848108489032A4C
:108DB00044F480748481C6D0D3F89443B3F89853B4
:108DC000D3F890036560256845F001052560A0F89B
:108DD00048108489042A44F480748481B3D0D3F881
:108DE000C444B3F8C854D3F8C0046560256845F09E
:108DF00001052560A0F848108489052A44F4807490
:108E00008481A0D0D3F8F445B3F8F855D3F8F00531
:108E10006560256845F001052560A0F84810848943
:108E2000062A44F4807484818DD0D3F82447B3F8A3
:108E30002857D3F820076560256845F001052560AF
:108E4000A0F848108489072A44F4807484813FF490
:108E50007AAFD3F85428B3F85808D3F85038506094
:108E6000106840F001001060A3F848109A8942F49D
:108E700080729A8170BD05461DF09EFD217AA9B1D0
:108E80006DB1194A002316890133002E18BF002145
:108E9000AB4202F16002F6D100293FF4E7AE00F5E3
:108EA0001C501030002320602372DFE62368C31AB1
:108EB000002BFFF648AF637A3BB1013BDBB2637234
:108EC0002BB100F57A702060D0E62360CEE66368AF
:108ED00003442360CAE600BF8C5E002048D2002015
:108EE000CC1100104CD2002048CF002010B5027CDD
:108EF00001681F2A4FF020030ED94C68203A934096
:108F00001C4208D00B4A406800241470026822F00A
:108F100001020260CB6010BD0C6893401C42FAD085
:108F2000044A406800241470026822F001020260C2
:108F30008B60F0E78088002010B5027C01681F2A52
:108F40004FF020030ED94C68203A93401C4208D0C1
:108F50000B4A406800241470026822F0010202608B
:108F6000CB6010BD0C6893401C42FAD0044A4068A4
:108F700000241470026822F0010202608B60F0E7A6
:108F8000A56F00202DE9F041C40023189B00B749CC
:108F9000CA585268958AADB2EFB2FE070B4461D44D
:108FA000BE0737D5BFF35F8F1D7EEDB2012D00F0F8
:108FB000BB80AF4E138BBFF35F8F231801EB83038E
:108FC0001D7E022D00F0CE80231801EB83031D7E51
:108FD000032D05D19B7E1BB1737F002B40F01A81BE
:108FE000938896F91CC043F480639380231801EBA7
:108FF00083031B7E013363450AD1B37F0025757758
:10900000002B40F08A80204401EB80000023437550
:10901000BDE8F081964E17F0040F96F91CC04DD1B3
:1090200017F0400700F0B280178A1D6AFFB205F8FA
:109030000C705FFA8CF56F1C93F818E07BB2DF1CA4
:10904000BE4533779C4600F00981271801EB87075E
:109050003F7EBB42CAD105F1020C4FFA8CFC86F868
:109060001CC0C3E71588824E25F400652D042D0C25
:109070001580158845F4806515809D7E002737771B
:10908000002D3DD0757F002D37D0231801EB8303D1
:1090900001251B7E7577022B03D1138843F40063EF
:1090A0001380231801EB83039B7D43F0010313829C
:1090B000204401EB8000037EBDE8F0819F7E757F38
:1090C0004FF0010E86F81EE0002F5CD0002D78D105
:1090D000231801EB83035B7E002B00F0A480138830
:1090E0000CF1010C4FFA8CFC43F4007386F81CC0A1
:1090F00013801388DF05FCD478E7DB7DFF2BC4D019
:10910000231801EB83039D7D05F0FE051582DB7DB1
:10911000FF2BCDD0FF233377CAE7938823F4407326
:109120001B041B0C93806EE79B7E514E002B3FF47B
:1091300041AF737F002B3FF43DAF138823F480636E
:109140001B041B0C1380BFF35F8F138B1388B57741
:1091500043F400731380938896F91CC043F4806332
:10916000938043E79B7E002B3FF42EAF737F002B51
:109170003FF42AAF138896F91CC023F480631B04C4
:109180001B0C138016E0002DA2D0A8E72D067FF55A
:109190002DAFBCF1FF3F6DD0DD6915F80C50158285
:1091A0000CF1010C1D7E4FFA8CF39D429C463377E7
:1091B0007FF41CAF938823F480631B041B0C938003
:1091C00014E71F7ED3F820805FFA8CF5AE44022F9F
:1091D0004FFA8EFE17882DD927F480673F043F0C85
:1091E0001780178AFFB208F80C701788D3F820C0D0
:1091F00047F400731380138ADBB20CF80E309388A7
:1092000005F1020C4FFA8CFC43F4806386F81CC015
:1092100093806EE7938896F91CC023F480631B0447
:109220001B0C9380E2E61388012543F480731380BE
:1092300075775EE747F400771780178AFFB208F862
:109240000C70178AD3F8208005F1030C4FFA8CFCC0
:10925000FBB286F81CC008F80E304AE7978827F45E
:1092600080673F043F0C9780EFE600BF9C640020BE
:10927000E8280020DD7D15829D7E37771DB91B7E95
:10928000002B7FF415AF938823F480631B041B0C21
:1092900093800DE700230122036003714371C371C2
:1092A00003724372C3728271827270472DE9F84F64
:1092B000DDE90A64894617460021202298460546C2
:1092C00046F054FB5EB1D6E900327189EB81C3F3FD
:1092D0000F432B82C2F30F43EA822B8369824846F5
:1092E00045F0A2FB17F0100B10D1431E70B119F816
:1092F00003202E2A18BF09EB030104D14AE011F81C
:10930000016D2E2E3ED013F1FF33F8D2082802460D
:10931000CA46A8BF08224FF0000B4FF020336B6005
:109320002B60C5F807304946284605F1080646F087
:10933000B7FA5A465146304646F0B2FA6B1EE81D5F
:1093400013F8012FA2F1610119299CBF203A1A706C
:109350008342F5D105F10B0116F8013BA3F161023F
:10936000192A9CBF203B06F8013CB142F4D11823D6
:10937000C8F30F42EF722B73A5F81A80AA82EC6132
:10938000BDE8F88FC01A00F1FF3BBBF1030FA8BF87
:109390004FF0030B082B03F1010AA8BF0823CA44AE
:1093A0001A46BAE738B51D4B1B78044600F125056F
:1093B00093B104221A49203046F016FB28461422A5
:1093C000184946F011FB012384F83A30164B1B78FC
:1093D00073B984F83B3038BD28461422134946F04F
:1093E00003FB012384F83A300F4B1B78002BF0D09D
:1093F0000F4B186859689A68DD68E5602060616005
:10940000A260DD69186959699A69A2610123E56161
:109410002061616184F83B3038BD00BF4AAD002057
:109420004BAD002051AD002028AD00202061050883
:1094300029AD0020014B18681DF05CBDB46A002006
:1094400010B50021044601201CF064FA207010BD04
:1094500038B500240472451EE1B202201CF05AFA0D
:109460000134082C05F8010FF6D138BD38B52C228F
:10947000002146F07BFA0346642140F2DC5240F2C0
:10948000022019745A821321202240F21A4540F218
:109490006C74188399760E2002211A7701229D821E
:1094A000DC8240F2753540F6430483F8220083F8ED
:1094B0002A109A7383F82920DD831C8419460248F8
:1094C000BDE838400FF0DCB82C6105082DE9F04FFD
:1094D000002087B00C461D46012192461FF0E8FE91
:1094E000002D63D005EB0A03DFF8D094DFF8D0B489
:1094F000039355461CE0002D00F0C581D9F81430C7
:10950000AB4264D0D9F81030AB4200F09780D9E973
:109510000631AB4252D8A94200F26F81691A204647
:109520003DF0E2FB039B01359D4204F500743DD004
:10953000D9F82060AE42DED8D9F83080AE1B4FEAB1
:10954000D60AD8F830300AF1020A9A4506F0070622
:1095500003D3D8F838309A4509D9414650463DF0F2
:1095600091FB8046002800F04D81C9F8300098F842
:109570000430002B40F0E280D8F82870002F00F073
:10958000DF81D8F83030D8F80C20AAEB030A06EBBC
:10959000CA0A4346204602EB4A224FF40071B847FC
:1095A000039B01359D4204F50074C1D1002108469A
:1095B0001FF07EFE002007B0BDE8F08FA942ADD9B4
:1095C0004FF400720021204646F0D0F9AAE752225B
:1095D00061204123002622706270A070722284F8FC
:1095E000E70184F8E631D9F82800E3704FF0FF3343
:1095F000314684F8E42184F8E521C4F8E8014FF409
:10960000F07284F8EC3184F8ED3184F8EE3184F8AE
:10961000EF31201D46F0AAF955216FF05502C4F82C
:10962000F061C4F8F461C4F8F86184F8FC6184F86E
:10963000FD6184F8FE1184F8FF2173E74FF4007296
:109640000021204646F092F9D44BD54F03CBEB23B3
:10965000022223704FF0080C9026F8234FF0580E8A
:10966000C4F80300227484F80DC0C4F8071084F80D
:1096700001E0A6706375D9F81010D9F80830D9F850
:109680001C602273591A21624FF0FF3100233F20E2
:10969000A1763E21A273E372E3736374A374E3744F
:1096A0002375A375E3756376E3766377A377E37732
:1096B0002076217784F82C2007CFD9F8187084F809
:1096C0002830F61B84F8293084F82A3084F82B30AF
:1096D00084F82D3084F82E3084F82F3084F831301F
:1096E00084F8323084F8333080236662C4F847004F
:1096F00004F1470684F8403029209423A94F84F8C8
:1097000046C084F8420084F843300E200D234FF009
:10971000010C84F8440084F8453084F830C071604E
:1097200003CF33465527AA269A60C4F85200C4F8DE
:10973000561084F8FE7184F8FF61F3E64FF400726E
:109740000021204646F012F9D8F84030002E61D1B1
:1097500004F12007002B77D0D8F83030924911223D
:10976000CDE900662046FFF7A1FDD8F840301A6C1D
:1097700004F1400A002A79D01B6B8C49CDE90066C0
:1097800038461122FFF792FDD8F84460002E3FF4CE
:10979000C9AE4FF4E078CDE904450CE00024CDE9F2
:1097A00000C4FFF783FDB66CBA46A8F120080EB3DB
:1097B000B8F11F0F1ED93468356B96F804E01122FA
:1097C0002B46214650460AF1200706F11C0CBEF13B
:1097D000000FE3D172793369019342F021022B46E5
:1097E000CDF800C0FFF762FDB66CBA46A8F12008BC
:1097F000002EDDD1DDE9044594E6E91A20463DF06E
:1098000073FA8FE6231F04F5FE7243F804BF9A42F1
:10981000FBD187E6002BD8F844200CBF012302239C
:10982000C3EB0613002A3FF47DAE966C013B002E7D
:109830003FF478AE013BB66CF9D1002E3FF472AE26
:10984000A2464FF40078A6E7CDE900663346D9F882
:109850000C1008222046FFF729FDD8F84460002E9E
:109860003FF460AEBA464FF4F07894E7CDE9006675
:109870003346384611224D49FFF718FDD8F84460A9
:10988000002E86D14EE64FF400722946204646F05F
:109890006DF880220C2384F8BE2184F8C231D9F8F7
:1098A0001000434BD9F8086084F8B85183FB0032AC
:1098B000C117C1EB2232B2F5806F84F8B95184F838
:1098C000BA5184F8BB5184F8BC5184F8BD51C4F836
:1098D000C601C4F8CA6142DBFF2384F8BF3184F8B3
:1098E000C13184F8C031324B711E83FB0132CE1777
:1098F000C6EB2232B2F5806F29DA2E4B84F8C521EF
:1099000083FB01030B442C48C6EB6313C3EB8316A4
:1099100080FB0370891B1844DE17921022F03F026F
:109920000131C6EBE0100A43034484F8C42184F8F3
:10993000C3315522AA2384F8FE2184F8FF31F1E5D2
:1099400039464FF40072204646F010F8EAE5FF234E
:1099500084F8C33184F8C53184F8C431E9E7154B84
:1099600084F8C12183FB00730344134FC1EB6313DD
:1099700087FB0317C3EB831C9110A0EB0C02F818B4
:10998000DF1721F03F010132C7EBE0100A43034427
:1099900084F8C02184F8BF31A5E700BF4061050805
:1099A0004C6105085C610508386105083C610508E3
:1099B00097554541832008828180808000C6002021
:1099C000DEADBEEF08B52FF0E3FB80F001004042B2
:1099D00040B208BD70B50C4601211E46084615462A
:1099E0001FF066FCAEB104EB462601E02FF0D0FB81
:1099F0000022214628463CF0D9FF0028F6D12FF05E
:109A0000C7FB0028FBD004F50074B44205F1010542
:109A1000EED1002101201FF04BFC002070BD00BFE3
:109A200070B50C4601211E46084615461FF040FC45
:109A300096B104EB46260022214628463DF04EF81A
:109A40000028F8D02FF0A4FB0028FBD004F5007408
:109A5000B44205F10105EED1002101201FF028FCE0
:109A6000002070BD002108B508461FF021FC3DF024
:109A700071F82FF08DFB0028FBD0012100201FF092
:109A800017FC002008BD00BF10B5044C04480A466E
:109A900021462FF005FE204610BD00BF08290020FA
:109AA0006861050810B5044C04480A4621462FF0A9
:109AB000F7FD204610BD00BF082900207861050889
:109AC00010B5044C04480A4621462FF0E9FD204613
:109AD00010BD00BF08290020846105080A4608B5AA
:109AE000054920B105482FF0DBFD034808BD0448B7
:109AF0002FF0D6FD004808BD08290020B0610508F8
:109B0000986105082DE9F0410B4E346873691C40DB
:109B10000FD0DFF828800127B4FA84F3C3F11F03C4
:109B200007FA03F558F8230003689847AC437561BA
:109B3000F2D1BDE8F08100BF003C0140746A002012
:109B40002DE9F0410B4E346873691C400FD0DFF8EB
:109B500028800127B4FA84F3C3F11F0307FA03F541
:109B600058F8230003689847AC437561F2D1BDE80B
:109B7000F08100BF003C0140746A00202DE9F041F3
:109B80000B4E346873691C400FD0DFF82880012722
:109B9000B4FA84F3C3F11F0307FA03F558F823005E
:109BA00003689847AC437561F2D1BDE8F08100BF0E
:109BB000003C0140746A00202DE9F0410B4E3468EE
:109BC00073691C400FD0DFF828800127B4FA84F3B2
:109BD000C3F11F0307FA03F558F8230003689847F9
:109BE000AC437561F2D1BDE8F08100BF003C01409B
:109BF000746A00202DE9F0410B4E346873691C40F3
:109C00000FD0DFF828800127B4FA84F3C3F11F03D3
:109C100007FA03F558F8230003689847AC437561C9
:109C2000F2D1BDE8F08100BF003C0140746A002021
:109C30002DE9F0410B4E346873691C400FD0DFF8FA
:109C400028800127B4FA84F3C3F11F0307FA03F550
:109C500058F8230003689847AC437561F2D1BDE81A
:109C6000F08100BF003C0140746A0020002871D0E0
:109C7000F0B58488B4FA84F4C4F11F04651C83B081
:109C800001D103B0F0BDE7B207F0FC0606F1804653
:109C900006F59C3607F00307D6F808C00068BF0039
:109CA0004FF00F0E0EFA07FE2CEA0E05DFF8B4C0D7
:109CB00000F13F404CF8241000F57E00B560D6F866
:109CC00008C02549254DC0F38720B8400127A7408B
:109CD00040EA0C00B0604F610E68F84306400E6029
:109CE0004E6806404E600E683E430E608E68064029
:109CF0008E60CE682C443040102BC86094F87800F9
:109D000021D003F1804303F59E331968394319606C
:109D1000134B034493F820119142B2DD0544961190
:109D200095F888108DF804100024012101A883F80B
:109D300020218DF805608DF806408DF8071030F071
:109D4000A1FE03B0F0BD8B683B438B60CB681F4323
:109D5000CF60DDE7704700BF003C0140601105089F
:109D6000E8280020746A0020094A0A4808B5536CA4
:109D700043F4804353640021402245F0F7FD064B35
:109D80004FF0FF32C3F82021C3F8232108BD00BFE4
:109D900000380240746A0020E828002010B58B6863
:109DA0000160044698470022FF230121A2736373D8
:109DB000217310BD03685B6A184700BF03681B6A04
:109DC000184700BF70B44E1C0568C2728672AC6939
:109DD000A44670BC604700BF2DE9F0410446184618
:109DE0000D4616461F4644F01FFE2844A072206808
:109DF000E672294645693B4632462046AC46BDE8F8
:109E0000F0416047036810B504461B689847236813
:109E100020469B689847A37B0133A37310BD00BF06
:109E200010B5036804469B689847FF2301226373BB
:109E3000227310BD38B50D461AF0D4FE044650B159
:109E400036238371C57101211FF082F92046BDE8D8
:109E500038401FF01FBA38BD38B50D461AF0C2FEA3
:109E6000044650B135238371C57120211FF070F96C
:109E70002046BDE838401FF00DBA38BDF8B5124F86
:109E800005460024E65D30461AF0ACFE854204D15A
:109E900021463046BDE8F840DEE701340B2CF1D115
:109EA0000A4C20781AF09EFE854209D060781AF09C
:109EB00099FE854206D10121605CBDE8F840B9E712
:109EC0000021F9E7F8BD00BF8964002094640020F8
:109ED0000E4B984214D0A3F5784398420ED003F568
:109EE000806398420ED10222094B03EB02135A8978
:109EF000013292B25A81588980B270470122F3E749
:109F00000022F1E74FF0FF30704700BF0030014002
:109F1000A8B10020F8B584894FF6FF764FF47A7423
:109F200033B319B30F78013101E0B44218D0058979
:109F3000013CAD07A4B2F8D5BCB284814FF47A7469
:109F400002E0BCB2B4420BD00589ED0704F1FF3743
:109F5000F7D58589ADB20AB115700132013BDFE753
:109F6000FFF7B6FF003018BF0120F8BDFF27DEE77E
:109F70000120F8BD30B5437F83B004461BB90120F2
:109F8000637703B030BD0523ADF80430056800BF2A
:109F9000A8681FF079F96A4601A902236868FFF7EB
:109FA000B9FFA8681FF076F900BF9DF8013003F0F3
:109FB000010383F00100637703B030BDF8B5074CAF
:109FC00005460F46266803E023689B1BBB4204D866
:109FD0002846FFF7CFFF0028F6D0F8BD24B20020B6
:109FE000F0B5077F83B004464FF0030C00200090CB
:109FF00016461D468DF804008DF800C06FB30B0E99
:10A000008DF801300DF10203080C0A0A99701870DE
:10A01000062120465A70FFF7D1FFE0B1236800BF48
:10A0200098681FF031F9237F2268002B14BF0523A5
:10A030000423694650680022FFF76CFF236832460C
:10A04000002158682B46FFF765FF236898681FF0CA
:10A0500021F900BF284603B0F0BD0DF10103D3E79D
:10A060002DE9F0418046806810B1046880886083E3
:10A07000D8F8040085894FF47A744FF6FF7613F10F
:10A08000FF3320D341B30F78013101E0B44218D03F
:10A090000589013CAD07A4B2F8D5BCB284814FF468
:10A0A0007A7402E0BCB2B4420BD00589ED0704F12A
:10A0B000FF37F7D58589ADB2002AE0D0157001329F
:10A0C000DDE7FFF705FFD8F8083013B11A689B8861
:10A0D00013830120BDE8F081FF27D9E7F0B5876938
:10A0E00083B0064617B13B68BA885A837069DFF8B7
:10A0F000A8E08389C3244FF47A734FF0060C6D46B1
:10A100004FF6FF710EF1010E03E0013B9BB28B4253
:10A1100020D002899207F8D5A3B283814FF47A73D5
:10A1200002E0A3B28B4215D00289D20703F1FF34BB
:10A13000F7D5828992B20DB12A700135BCF1000FBA
:10A140000BD00CF1FF3CFF24BEF1000FE1D09EF8D4
:10A150000040D7E7FFF7BCFEB76917B13B68BA8884
:10A160001A839DF805009DF801509DF802109DF896
:10A1700003409DF804209DF8063041EA052143EA9A
:10A18000002342EA04220120A6F85010A6F852202B
:10A19000A6F8543003B0F0BDF011050808B540F240
:10A1A000E93300E0A3B10289013B12F0020F9BB238
:10A1B000F8D089B2818140F2E93300E043B10289ED
:10A1C000013B12F0010F9BB2F8D08089C0B208BDEC
:10A1D000FFF77EFEC0B208BD427A4AB110B5044610
:10A1E00004F10A01D0E9003098470023637210BDE2
:10A1F000704700BF437A5A1C0344D2B2427299722C
:10A20000037A93420AD84AB110B5044604F10A0110
:10A21000D0E9003098470023637210BD704700BF3B
:10A2200048B10123302803FA01F101D0312803D1CC
:10A230004A0709D1002070473228F9D03328F7D0D7
:10A24000342803D18B07F5D0012070473528F9D089
:10A250002028F7D02128F5D01028E9D01128E7D000
:10A260001228E5D01328E3D01428EBD01528E9D024
:10A27000162804D111F0030018BF012070471728D9
:10A28000D8D111F0030018BF01207047302829D021
:10A29000312829D0322829D0332829D0342829D070
:10A2A000352829D020282BD021282BD0102825D0A4
:10A2B000112829D0122829D0132829D0142829D0D0
:10A2C000152829D0162805D0172808BF0F2302D03B
:10A2D000002070470E23114A03EB4303134493F805
:10A2E0009A0070470023F6E70123F4E70223F2E720
:10A2F0000323F0E70423EEE70523ECE70823EAE76E
:10A300000623E8E70723E6E70923E4E70A23E2E771
:10A310000B23E0E70C23DEE70D23DCE760110508E3
:10A32000024A136823EA000010607047F4FE002020
:10A33000F8B50468C4F30D0405460E4604B32F684F
:10A3400030F0ACFC092840F08880454C236923F4A8
:10A3500040732361236943F400732361236943F04D
:10A36000010323613E6030F099FC2369092823F042
:10A370000103236171D12B6804332B60002035E089
:10A38000384B394A93422BD902F58042934226D961
:10A3900002F5804293422AD902F58042934228D99D
:10A3A00002F58032934226D902F50032934224D935
:10A3B00002F50032934222D902F50032934220D9AD
:10A3C00002F5003293421ED902F5802293421CD935
:10A3D000B3F1016F1BD305201BF044FDFBE70824FC
:10A3E00030F05CFC092814D04FF0FF30F8BD102489
:10A3F000F6E71824F4E72024F2E72824F0E73024D5
:10A40000EEE73824ECE74024EAE74824E8E758245C
:10A41000E6E7134F3B6923F440733B613B6943F428
:10A4200000733B613B6923F0F8033B613B6943F0F8
:10A4300002031C433C613B6943F480333B6130F0D1
:10A440002DFC3B6923F002033B613B69092823F0A3
:10A45000F8033B613FF473AFC6E76FF00100C5E757
:10A46000003C024000400008FF3F0008F8B50446E9
:10A470000D468E180027B542206900D1F8BDE3686B
:10A48000591CE160234415F8012B1A720429F2D1FA
:10A4900018B9A1682046FFF74BFFC4E90370EAE74B
:10A4A00030B402681146531C036011F8024B01607E
:10A4B000D31C517803609378151D05601B0443EA93
:10A4C0000123D078234343EA006030BC704700BFCB
:10A4D0000368591C1A46016012F8021B0260587882
:10A4E00041EA0020704700BF03685A1C02601878D8
:10A4F000704700BF70B5044608460E4644F094FA13
:10A50000314605460246206845F0CAF920682844CD
:10A51000206070BD38B504460068154645F0C0F9A6
:10A5200022682A44226038BD036810B40A0E5C1CFD
:10A5300004601A7003680A0C5C1C04601A700368DB
:10A540000A0A5C1C04601A7003685A1C02601970C5
:10A550005DF8044B704700BF036810B40A0A5C1C26
:10A5600004601A7003685A1C026019705DF8044B8D
:10A57000704700BF03685A1C026010B4197003686A
:10A580000A0A5C1C04601A7003680A0C5C1C0460F4
:10A590001A700368090E5A1C026019705DF8044BAA
:10A5A000704700BF03685A1C026019700368090AEB
:10A5B0005A1C02601970704710EE103AC3F316026D
:10A5C00042F07E5207EE102ADFED167ADFED164AD2
:10A5D0009FED165ADFED165A9FED166ADFED163A1B
:10A5E000DFED166A9FED164AE7EE274ADB1507EE08
:10A5F000903AA4EE875AF8EEE77AE5EE075A67EE4E
:10A60000A37AA5EE876AB5EEC00AE6EE077AF1EE08
:10A6100010FAD4BFB0EE440AB0EE660A37EE800AF4
:10A62000704700BFDACDFE3CB9D593BE5CB8903F11
:10A63000AA841DC022E061401872313F07F1B3C205
:10A64000000080FFDFED1D3ADFED1D7A9FED1D7AE2
:10A650009FED1D4ADFED1D4A9FED1D5ADFED1D5A8E
:10A660009FED1D6ADFED1D6AE0EE237AF4EEC77AF6
:10A67000F1EE10FA88BFF0EE477AF4EEC47AF1EE0C
:10A6800010FAB8BFF0EE447AFDEEE77A17EE903A92
:10A69000C3F3160242F07E5207EE102AA7EE245AA8
:10A6A00003F0FF4300EE103AE5EE075AA5EE876A85
:10A6B000E6EE076A26EE800A704700BF3BAA384BD9
:10A6C00000007E4E0000FF4E00000000ED185E3CD2
:10A6D00081900FBBAF9D2A3EB2D19F3EE886023FDC
:10A6E00007EE901AF8EE677A9FED837A27EE800ADC
:10A6F00020EE070AFDEEC07A17EE903A2033402B89
:10A7000000F28180DFED7D7AB4EEE70AF1EE10FA17
:10A7100040F3E680B0EE407A9FED796ADFED796A2A
:10A7200001E0B0EE677AB4EEE67AF1EE10FA77EE79
:10A73000467AF6DC9FED747AF4EEC77AF1EE10FA01
:10A7400040F1D1809FED6E6ADFED706A01E0F0EEBE
:10A75000477AF4EEE67AF1EE10FA37EE867AF6D41E
:10A76000DFED6B7AB4EEE77AF1EE10FA40F3A780F2
:10A77000DFED627A37EEC77A27EE076ADFED655ABA
:10A78000DFED657ADFED656A9FED655AE6EE257AC5
:10A7900067EE065AE6EE276AF7EE007AA5EEA67A8D
:10A7A000F0EE675AE7EE055AE7EE457A87EEA55ACE
:10A7B000DFED577A30EE277AFDEEC76A16EE903A53
:10A7C0002033402B24D99FED577AF6EE006AB7EE7E
:10A7D000006AF7EE004AC4EEA57A00238361436164
:10A7E0000362C36180ED045A67EEA66A27EE866AAB
:10A7F00027EE877AC0ED006AC0ED026A80ED016A3B
:10A8000080ED037A7047B7EE005AF0EE455ACFE775
:10A81000B4EEE70AF1EE10FA6BDD9FED396ADFED79
:10A82000396A01E0B0EE677AB4EEE67AF1EE10FA3A
:10A8300077EE467AF6DC9FED347AF4EEC77AF1EEE5
:10A8400010FA53D59FED2E6ADFED306A01E0F0EE8D
:10A85000477AF4EEE67AF1EE10FA37EE867AF6D41D
:10A86000DFED2B7AB4EEE77AF1EE10FA33DCDFEDB0
:10A870002E7AB4EEE77AF1EE10FA44BFDFED227AD9
:10A8800037EEC77A27EE076ADFED224ADFED226A4C
:10A89000DFED227AE6EE246A67EE064AE6EE267AD5
:10A8A000B7EE006AA4EEA77AF6EE006A36EE476AC3
:10A8B000F8EE007A27EE277A66EE266A89E7DFED62
:10A8C0001A7AB4EEE77AF1EE10FA44BFDFED0E7AB1
:10A8D00037EEC77A50E7DFED097A37EEC77AD1E76E
:10A8E000F0EE407A26E7B0EE677A39E7B0EE677AA5
:10A8F000B6E7F0EE477A9EE727D4D236DB0F494021
:10A90000DB0FC940E4CB1641DB0F49C0E4CB16C1D5
:10A91000DB0FC93F92E741B99730083C15A82ABE22
:10A92000F304353F00000000DB0FC9BFFDEEC07A25
:10A9300017EE903A2033402B45D8DFED2D7AB4EE58
:10A94000E70AF1EE10FA4DDDDFED2A6A9FED2A7A73
